{
  "_format": "hh-sol-artifact-1",
  "contractName": "ConditionalToken",
  "sourceName": "contracts/ConditionalToken.sol",
  "abi": [
    {
      "inputs": [],
      "stateMutability": "nonpayable",
      "type": "constructor"
    },
    {
      "inputs": [
        {
          "internalType": "address",
          "name": "sender",
          "type": "address"
        },
        {
          "internalType": "uint256",
          "name": "balance",
          "type": "uint256"
        },
        {
          "internalType": "uint256",
          "name": "needed",
          "type": "uint256"
        },
        {
          "internalType": "uint256",
          "name": "tokenId",
          "type": "uint256"
        }
      ],
      "name": "ERC1155InsufficientBalance",
      "type": "error"
    },
    {
      "inputs": [
        {
          "internalType": "address",
          "name": "approver",
          "type": "address"
        }
      ],
      "name": "ERC1155InvalidApprover",
      "type": "error"
    },
    {
      "inputs": [
        {
          "internalType": "uint256",
          "name": "idsLength",
          "type": "uint256"
        },
        {
          "internalType": "uint256",
          "name": "valuesLength",
          "type": "uint256"
        }
      ],
      "name": "ERC1155InvalidArrayLength",
      "type": "error"
    },
    {
      "inputs": [
        {
          "internalType": "address",
          "name": "operator",
          "type": "address"
        }
      ],
      "name": "ERC1155InvalidOperator",
      "type": "error"
    },
    {
      "inputs": [
        {
          "internalType": "address",
          "name": "receiver",
          "type": "address"
        }
      ],
      "name": "ERC1155InvalidReceiver",
      "type": "error"
    },
    {
      "inputs": [
        {
          "internalType": "address",
          "name": "sender",
          "type": "address"
        }
      ],
      "name": "ERC1155InvalidSender",
      "type": "error"
    },
    {
      "inputs": [
        {
          "internalType": "address",
          "name": "operator",
          "type": "address"
        },
        {
          "internalType": "address",
          "name": "owner",
          "type": "address"
        }
      ],
      "name": "ERC1155MissingApprovalForAll",
      "type": "error"
    },
    {
      "inputs": [
        {
          "internalType": "address",
          "name": "owner",
          "type": "address"
        }
      ],
      "name": "OwnableInvalidOwner",
      "type": "error"
    },
    {
      "inputs": [
        {
          "internalType": "address",
          "name": "account",
          "type": "address"
        }
      ],
      "name": "OwnableUnauthorizedAccount",
      "type": "error"
    },
    {
      "anonymous": false,
      "inputs": [
        {
          "indexed": true,
          "internalType": "address",
          "name": "account",
          "type": "address"
        },
        {
          "indexed": true,
          "internalType": "address",
          "name": "operator",
          "type": "address"
        },
        {
          "indexed": false,
          "internalType": "bool",
          "name": "approved",
          "type": "bool"
        }
      ],
      "name": "ApprovalForAll",
      "type": "event"
    },
    {
      "anonymous": false,
      "inputs": [
        {
          "indexed": true,
          "internalType": "address",
          "name": "user",
          "type": "address"
        },
        {
          "indexed": false,
          "internalType": "bytes32[]",
          "name": "children",
          "type": "bytes32[]"
        },
        {
          "indexed": true,
          "internalType": "bytes32",
          "name": "parent",
          "type": "bytes32"
        },
        {
          "indexed": false,
          "internalType": "uint256",
          "name": "amount",
          "type": "uint256"
        }
      ],
      "name": "OwnershipCombined",
      "type": "event"
    },
    {
      "anonymous": false,
      "inputs": [
        {
          "indexed": true,
          "internalType": "address",
          "name": "user",
          "type": "address"
        },
        {
          "indexed": true,
          "internalType": "bytes32",
          "name": "parent",
          "type": "bytes32"
        },
        {
          "indexed": false,
          "internalType": "bytes32[]",
          "name": "children",
          "type": "bytes32[]"
        },
        {
          "indexed": false,
          "internalType": "uint256",
          "name": "amount",
          "type": "uint256"
        }
      ],
      "name": "OwnershipSplit",
      "type": "event"
    },
    {
      "anonymous": false,
      "inputs": [
        {
          "indexed": true,
          "internalType": "address",
          "name": "previousOwner",
          "type": "address"
        },
        {
          "indexed": true,
          "internalType": "address",
          "name": "newOwner",
          "type": "address"
        }
      ],
      "name": "OwnershipTransferred",
      "type": "event"
    },
    {
      "anonymous": false,
      "inputs": [
        {
          "indexed": true,
          "internalType": "bytes32",
          "name": "parent",
          "type": "bytes32"
        },
        {
          "indexed": false,
          "internalType": "bytes32[]",
          "name": "children",
          "type": "bytes32[]"
        }
      ],
      "name": "PartitionCreated",
      "type": "event"
    },
    {
      "anonymous": false,
      "inputs": [
        {
          "indexed": true,
          "internalType": "address",
          "name": "operator",
          "type": "address"
        },
        {
          "indexed": true,
          "internalType": "address",
          "name": "from",
          "type": "address"
        },
        {
          "indexed": true,
          "internalType": "address",
          "name": "to",
          "type": "address"
        },
        {
          "indexed": false,
          "internalType": "uint256[]",
          "name": "ids",
          "type": "uint256[]"
        },
        {
          "indexed": false,
          "internalType": "uint256[]",
          "name": "values",
          "type": "uint256[]"
        }
      ],
      "name": "TransferBatch",
      "type": "event"
    },
    {
      "anonymous": false,
      "inputs": [
        {
          "indexed": true,
          "internalType": "address",
          "name": "operator",
          "type": "address"
        },
        {
          "indexed": true,
          "internalType": "address",
          "name": "from",
          "type": "address"
        },
        {
          "indexed": true,
          "internalType": "address",
          "name": "to",
          "type": "address"
        },
        {
          "indexed": false,
          "internalType": "uint256",
          "name": "id",
          "type": "uint256"
        },
        {
          "indexed": false,
          "internalType": "uint256",
          "name": "value",
          "type": "uint256"
        }
      ],
      "name": "TransferSingle",
      "type": "event"
    },
    {
      "anonymous": false,
      "inputs": [
        {
          "indexed": false,
          "internalType": "string",
          "name": "value",
          "type": "string"
        },
        {
          "indexed": true,
          "internalType": "uint256",
          "name": "id",
          "type": "uint256"
        }
      ],
      "name": "URI",
      "type": "event"
    },
    {
      "anonymous": false,
      "inputs": [
        {
          "indexed": true,
          "internalType": "bytes32",
          "name": "verseId",
          "type": "bytes32"
        },
        {
          "indexed": true,
          "internalType": "bytes32",
          "name": "parent",
          "type": "bytes32"
        }
      ],
      "name": "VerseCreated",
      "type": "event"
    },
    {
      "anonymous": false,
      "inputs": [
        {
          "indexed": true,
          "internalType": "bytes32",
          "name": "verseId",
          "type": "bytes32"
        },
        {
          "indexed": false,
          "internalType": "bytes32",
          "name": "outcome",
          "type": "bytes32"
        }
      ],
      "name": "VerseResolved",
      "type": "event"
    },
    {
      "inputs": [],
      "name": "ROOT_VERSE",
      "outputs": [
        {
          "internalType": "bytes32",
          "name": "",
          "type": "bytes32"
        }
      ],
      "stateMutability": "view",
      "type": "function"
    },
    {
      "inputs": [
        {
          "internalType": "address",
          "name": "account",
          "type": "address"
        },
        {
          "internalType": "uint256",
          "name": "id",
          "type": "uint256"
        }
      ],
      "name": "balanceOf",
      "outputs": [
        {
          "internalType": "uint256",
          "name": "",
          "type": "uint256"
        }
      ],
      "stateMutability": "view",
      "type": "function"
    },
    {
      "inputs": [
        {
          "internalType": "address[]",
          "name": "accounts",
          "type": "address[]"
        },
        {
          "internalType": "uint256[]",
          "name": "ids",
          "type": "uint256[]"
        }
      ],
      "name": "balanceOfBatch",
      "outputs": [
        {
          "internalType": "uint256[]",
          "name": "",
          "type": "uint256[]"
        }
      ],
      "stateMutability": "view",
      "type": "function"
    },
    {
      "inputs": [
        {
          "internalType": "bytes32[]",
          "name": "children",
          "type": "bytes32[]"
        },
        {
          "internalType": "bytes32",
          "name": "parent",
          "type": "bytes32"
        },
        {
          "internalType": "uint256",
          "name": "amount",
          "type": "uint256"
        }
      ],
      "name": "combineOwnership",
      "outputs": [],
      "stateMutability": "nonpayable",
      "type": "function"
    },
    {
      "inputs": [
        {
          "internalType": "bytes32",
          "name": "parent",
          "type": "bytes32"
        },
        {
          "internalType": "bytes32[]",
          "name": "children",
          "type": "bytes32[]"
        }
      ],
      "name": "createPartition",
      "outputs": [],
      "stateMutability": "nonpayable",
      "type": "function"
    },
    {
      "inputs": [
        {
          "internalType": "bytes32",
          "name": "verseId",
          "type": "bytes32"
        },
        {
          "internalType": "bytes32",
          "name": "parent",
          "type": "bytes32"
        }
      ],
      "name": "createVerse",
      "outputs": [],
      "stateMutability": "nonpayable",
      "type": "function"
    },
    {
      "inputs": [
        {
          "internalType": "bytes32",
          "name": "verseId",
          "type": "bytes32"
        }
      ],
      "name": "getTokenId",
      "outputs": [
        {
          "internalType": "uint256",
          "name": "",
          "type": "uint256"
        }
      ],
      "stateMutability": "pure",
      "type": "function"
    },
    {
      "inputs": [
        {
          "internalType": "bytes32",
          "name": "verseId",
          "type": "bytes32"
        }
      ],
      "name": "getVerseChildren",
      "outputs": [
        {
          "internalType": "bytes32[]",
          "name": "",
          "type": "bytes32[]"
        }
      ],
      "stateMutability": "view",
      "type": "function"
    },
    {
      "inputs": [
        {
          "internalType": "address",
          "name": "account",
          "type": "address"
        },
        {
          "internalType": "address",
          "name": "operator",
          "type": "address"
        }
      ],
      "name": "isApprovedForAll",
      "outputs": [
        {
          "internalType": "bool",
          "name": "",
          "type": "bool"
        }
      ],
      "stateMutability": "view",
      "type": "function"
    },
    {
      "inputs": [
        {
          "internalType": "bytes32",
          "name": "parent",
          "type": "bytes32"
        },
        {
          "internalType": "bytes32[]",
          "name": "children",
          "type": "bytes32[]"
        }
      ],
      "name": "isValidPartition",
      "outputs": [
        {
          "internalType": "bool",
          "name": "",
          "type": "bool"
        }
      ],
      "stateMutability": "view",
      "type": "function"
    },
    {
      "inputs": [
        {
          "internalType": "address",
          "name": "to",
          "type": "address"
        },
        {
          "internalType": "bytes32",
          "name": "verseId",
          "type": "bytes32"
        },
        {
          "internalType": "uint256",
          "name": "amount",
          "type": "uint256"
        }
      ],
      "name": "mintToken",
      "outputs": [],
      "stateMutability": "nonpayable",
      "type": "function"
    },
    {
      "inputs": [],
      "name": "owner",
      "outputs": [
        {
          "internalType": "address",
          "name": "",
          "type": "address"
        }
      ],
      "stateMutability": "view",
      "type": "function"
    },
    {
      "inputs": [
        {
          "internalType": "bytes32",
          "name": "",
          "type": "bytes32"
        },
        {
          "internalType": "bytes32",
          "name": "",
          "type": "bytes32"
        }
      ],
      "name": "partitions",
      "outputs": [
        {
          "internalType": "bool",
          "name": "",
          "type": "bool"
        }
      ],
      "stateMutability": "view",
      "type": "function"
    },
    {
      "inputs": [],
      "name": "renounceOwnership",
      "outputs": [],
      "stateMutability": "nonpayable",
      "type": "function"
    },
    {
      "inputs": [
        {
          "internalType": "bytes32",
          "name": "verseId",
          "type": "bytes32"
        },
        {
          "internalType": "bytes32",
          "name": "outcome",
          "type": "bytes32"
        }
      ],
      "name": "resolveVerse",
      "outputs": [],
      "stateMutability": "nonpayable",
      "type": "function"
    },
    {
      "inputs": [
        {
          "internalType": "bytes32",
          "name": "",
          "type": "bytes32"
        }
      ],
      "name": "resolvedOutcome",
      "outputs": [
        {
          "internalType": "bytes32",
          "name": "",
          "type": "bytes32"
        }
      ],
      "stateMutability": "view",
      "type": "function"
    },
    {
      "inputs": [
        {
          "internalType": "address",
          "name": "from",
          "type": "address"
        },
        {
          "internalType": "address",
          "name": "to",
          "type": "address"
        },
        {
          "internalType": "uint256[]",
          "name": "ids",
          "type": "uint256[]"
        },
        {
          "internalType": "uint256[]",
          "name": "values",
          "type": "uint256[]"
        },
        {
          "internalType": "bytes",
          "name": "data",
          "type": "bytes"
        }
      ],
      "name": "safeBatchTransferFrom",
      "outputs": [],
      "stateMutability": "nonpayable",
      "type": "function"
    },
    {
      "inputs": [
        {
          "internalType": "address",
          "name": "from",
          "type": "address"
        },
        {
          "internalType": "address",
          "name": "to",
          "type": "address"
        },
        {
          "internalType": "uint256",
          "name": "id",
          "type": "uint256"
        },
        {
          "internalType": "uint256",
          "name": "value",
          "type": "uint256"
        },
        {
          "internalType": "bytes",
          "name": "data",
          "type": "bytes"
        }
      ],
      "name": "safeTransferFrom",
      "outputs": [],
      "stateMutability": "nonpayable",
      "type": "function"
    },
    {
      "inputs": [
        {
          "internalType": "address",
          "name": "operator",
          "type": "address"
        },
        {
          "internalType": "bool",
          "name": "approved",
          "type": "bool"
        }
      ],
      "name": "setApprovalForAll",
      "outputs": [],
      "stateMutability": "nonpayable",
      "type": "function"
    },
    {
      "inputs": [
        {
          "internalType": "bytes32",
          "name": "parent",
          "type": "bytes32"
        },
        {
          "internalType": "bytes32[]",
          "name": "children",
          "type": "bytes32[]"
        },
        {
          "internalType": "uint256",
          "name": "amount",
          "type": "uint256"
        }
      ],
      "name": "splitOwnership",
      "outputs": [],
      "stateMutability": "nonpayable",
      "type": "function"
    },
    {
      "inputs": [
        {
          "internalType": "bytes4",
          "name": "interfaceId",
          "type": "bytes4"
        }
      ],
      "name": "supportsInterface",
      "outputs": [
        {
          "internalType": "bool",
          "name": "",
          "type": "bool"
        }
      ],
      "stateMutability": "view",
      "type": "function"
    },
    {
      "inputs": [
        {
          "internalType": "address",
          "name": "newOwner",
          "type": "address"
        }
      ],
      "name": "transferOwnership",
      "outputs": [],
      "stateMutability": "nonpayable",
      "type": "function"
    },
    {
      "inputs": [
        {
          "internalType": "uint256",
          "name": "",
          "type": "uint256"
        }
      ],
      "name": "uri",
      "outputs": [
        {
          "internalType": "string",
          "name": "",
          "type": "string"
        }
      ],
      "stateMutability": "view",
      "type": "function"
    },
    {
      "inputs": [
        {
          "internalType": "bytes32",
          "name": "",
          "type": "bytes32"
        }
      ],
      "name": "verses",
      "outputs": [
        {
          "internalType": "bytes32",
          "name": "id",
          "type": "bytes32"
        },
        {
          "internalType": "bytes32",
          "name": "parent",
          "type": "bytes32"
        },
        {
          "internalType": "bool",
          "name": "resolved",
          "type": "bool"
        },
        {
          "internalType": "bool",
          "name": "exists",
          "type": "bool"
        }
      ],
      "stateMutability": "view",
      "type": "function"
    }
  ],
  "bytecode": "0x60806040523480156200001157600080fd5b5060408051602081019091526000815233906200002e816200015f565b506001600160a01b0381166200005e57604051631e4fbdf760e01b81526000600482015260240160405180910390fd5b620000698162000171565b506040805160a081018252600080825260208083018281528451838152808301865294840194855260608401839052600160808501529180526004815282517f17ef568e3e12ab5b9c7254a8d58478811de00f9e6eb34345acd53bf8fd09d3ec90815591517f17ef568e3e12ab5b9c7254a8d58478811de00f9e6eb34345acd53bf8fd09d3ed55925180519293919262000127927f17ef568e3e12ab5b9c7254a8d58478811de00f9e6eb34345acd53bf8fd09d3ee920190620001c3565b5060608201516003909101805460809093015115156101000261ff00199215159290921661ffff19909316929092171790556200039b565b60026200016d8282620002cf565b5050565b600380546001600160a01b038381166001600160a01b0319831681179093556040519116919082907f8be0079c531659141344cd1fd0a4f28419497f9722a3daafe3b4186f6b6457e090600090a35050565b82805482825590600052602060002090810192821562000201579160200282015b8281111562000201578251825591602001919060010190620001e4565b506200020f92915062000213565b5090565b5b808211156200020f576000815560010162000214565b634e487b7160e01b600052604160045260246000fd5b600181811c908216806200025557607f821691505b6020821081036200027657634e487b7160e01b600052602260045260246000fd5b50919050565b601f821115620002ca57600081815260208120601f850160051c81016020861015620002a55750805b601f850160051c820191505b81811015620002c657828155600101620002b1565b5050505b505050565b81516001600160401b03811115620002eb57620002eb6200022a565b6200030381620002fc845462000240565b846200027c565b602080601f8311600181146200033b5760008415620003225750858301515b600019600386901b1c1916600185901b178555620002c6565b600085815260208120601f198616915b828110156200036c578886015182559484019460019091019084016200034b565b50858210156200038b5787850151600019600388901b60f8161c191681555b5050505050600190811b01905550565b6125ee80620003ab6000396000f3fe608060405234801561001057600080fd5b50600436106101575760003560e01c806377f0b6c3116100c3578063c9cb65e11161007c578063c9cb65e11461035b578063d47e89f11461036e578063e133f12d1461038e578063e985e9c5146103a1578063f242432a146103b4578063f2fde38b146103c757600080fd5b806377f0b6c31461029c5780638da5cb5b146102ff5780638fcf198d1461031a5780639d870ee214610322578063a22cb46514610335578063a3ec7e411461034857600080fd5b80632eb2c2d6116101155780632eb2c2d61461021b57806333d7c3c61461022e578063430ce75114610241578063484ad17a146102615780634e1273f414610274578063715018a61461029457600080fd5b8062fdd58e1461015c57806301ffc9a714610182578063043f22d1146101a55780630c4b2efd146101ba5780630e89341c146101cd5780631a727332146101ed575b600080fd5b61016f61016a366004611cc7565b6103da565b6040519081526020015b60405180910390f35b610195610190366004611d07565b610402565b6040519015158152602001610179565b6101b86101b3366004611d70565b610452565b005b6101b86101c8366004611dc3565b6106cd565b6101e06101db366004611e0f565b61094d565b6040516101799190611e6e565b6101956101fb366004611e81565b600560209081526000928352604080842090915290825290205460ff1681565b6101b8610229366004611fe9565b6109e1565b6101b861023c366004611e81565b610a48565b61025461024f366004611e0f565b610c16565b6040516101799190612093565b6101b861026f3660046120d7565b610c7a565b610287610282366004612128565b610eea565b6040516101799190612223565b6101b8610fbf565b6102d76102aa366004611e0f565b60046020526000908152604090208054600182015460039092015490919060ff8082169161010090041684565b6040805194855260208501939093529015159183019190915215156060820152608001610179565b6003546040516001600160a01b039091168152602001610179565b61016f600081565b610195610330366004611dc3565b610fd3565b6101b8610343366004612236565b61105b565b6101b8610356366004612272565b61106a565b61016f610369366004611e0f565b611158565b61016f61037c366004611e0f565b60066020526000908152604090205481565b6101b861039c366004611e81565b611194565b6101956103af3660046122a5565b61134e565b6101b86103c23660046122d8565b61137c565b6101b86103d536600461233d565b6113db565b6000818152602081815260408083206001600160a01b03861684529091529020545b92915050565b60006001600160e01b03198216636cdb3d1360e11b148061043357506001600160e01b031982166303a24d0760e21b145b806103fc57506301ffc9a760e01b6001600160e01b03198316146103fc565b600084815260046020526040902060030154610100900460ff166104915760405162461bcd60e51b815260040161048890612358565b60405180910390fd5b60008481526004602052604090206003015460ff16156104c35760405162461bcd60e51b81526004016104889061238f565b6001821161051d5760405162461bcd60e51b815260206004820152602160248201527f4d7573742073706c697420696e746f206d756c7469706c65206368696c6472656044820152603760f91b6064820152608401610488565b60005b828110156105b857600085815260056020526040812090858584818110610549576105496123c6565b602090810292909201358352508101919091526040016000205460ff166105a65760405162461bcd60e51b815260206004820152601160248201527024b73b30b634b2103830b93a34ba34b7b760791b6044820152606401610488565b806105b0816123f2565b915050610520565b5060006105c485611158565b9050816105d133836103da565b10156106165760405162461bcd60e51b8152602060048201526014602482015273496e73756666696369656e742062616c616e636560601b6044820152606401610488565b610621338284611419565b60005b8381101561067f57600061064f868684818110610643576106436123c6565b90506020020135611158565b905061066c33828660405180602001604052806000815250611488565b5080610677816123f2565b915050610624565b5084336001600160a01b03167fbb4938dfa26b3920de3ef974c1beb165c8a9f4d911eb912051baf9314c1b5dd08686866040516106be9392919061243d565b60405180910390a35050505050565b6106d56114e5565b600083815260046020526040902060030154610100900460ff1661070b5760405162461bcd60e51b815260040161048890612358565b60008381526004602052604090206003015460ff161561073d5760405162461bcd60e51b81526004016104889061238f565b6001811161079b5760405162461bcd60e51b815260206004820152602560248201527f506172746974696f6e206d7573742068617665206d756c7469706c652063686960448201526436323932b760d91b6064820152608401610488565b60005b8181101561090d57600460008484848181106107bc576107bc6123c6565b90506020020135815260200190815260200160002060030160019054906101000a900460ff1661082e5760405162461bcd60e51b815260206004820152601a60248201527f4368696c6420766572736520646f6573206e6f742065786973740000000000006044820152606401610488565b8360046000858585818110610845576108456123c6565b90506020020135815260200190815260200160002060010154146108ab5760405162461bcd60e51b815260206004820152601b60248201527f4368696c6420766572736520706172656e74206d69736d6174636800000000006044820152606401610488565b60008481526005602052604081206001918585858181106108ce576108ce6123c6565b90506020020135815260200190815260200160002060006101000a81548160ff0219169083151502179055508080610905906123f2565b91505061079e565b50827f489a2ed77dec1bcc0e788e005168f215089be4ac088aa3496e329fb3e83a18258383604051610940929190612461565b60405180910390a2505050565b60606002805461095c9061247d565b80601f01602080910402602001604051908101604052809291908181526020018280546109889061247d565b80156109d55780601f106109aa576101008083540402835291602001916109d5565b820191906000526020600020905b8154815290600101906020018083116109b857829003601f168201915b50505050509050919050565b336001600160a01b0386168114801590610a025750610a00868261134e565b155b15610a335760405163711bec9160e11b81526001600160a01b03808316600483015287166024820152604401610488565b610a408686868686611512565b505050505050565b610a506114e5565b600082815260046020526040902060030154610100900460ff16610aad5760405162461bcd60e51b815260206004820152601460248201527315995c9cd948191bd95cc81b9bdd08195e1a5cdd60621b6044820152606401610488565b60008281526004602052604090206003015460ff1615610b085760405162461bcd60e51b815260206004820152601660248201527515995c9cd948185b1c9958591e481c995cdbdb1d995960521b6044820152606401610488565b600082815260046020818152604080842060038101805460ff1916600117905560068352818520869055928252600290920180548351818402810184019094528084529091830182828015610b7c57602002820191906000526020600020905b815481526020019060010190808311610b68575b5050505050905060005b8151811015610be35782828281518110610ba257610ba26123c6565b602002602001015114610bd157610bd1828281518110610bc457610bc46123c6565b6020026020010151611572565b80610bdb816123f2565b915050610b86565b50827fd9938625aac456e812583f73c9ece1319d170aaa60bcbd883d6f17235c8db1aa8360405161094091815260200190565b6000818152600460209081526040918290206002018054835181840281018401909452808452606093928301828280156109d557602002820191906000526020600020905b815481526020019060010190808311610c5b5750505050509050919050565b600082815260046020526040902060030154610100900460ff16610cb05760405162461bcd60e51b815260040161048890612358565b60008281526004602052604090206003015460ff1615610ce25760405162461bcd60e51b81526004016104889061238f565b60018311610d325760405162461bcd60e51b815260206004820152601e60248201527f4d75737420636f6d62696e65206d756c7469706c65206368696c6472656e00006044820152606401610488565b60005b83811015610e4057600083815260056020526040812090868684818110610d5e57610d5e6123c6565b602090810292909201358352508101919091526040016000205460ff16610dbb5760405162461bcd60e51b815260206004820152601160248201527024b73b30b634b2103830b93a34ba34b7b760791b6044820152606401610488565b6000610dd2868684818110610643576106436123c6565b905082610ddf33836103da565b1015610e2d5760405162461bcd60e51b815260206004820152601a60248201527f496e73756666696369656e74206368696c642062616c616e63650000000000006044820152606401610488565b5080610e38816123f2565b915050610d35565b5060005b83811015610e83576000610e63868684818110610643576106436123c6565b9050610e70338285611419565b5080610e7b816123f2565b915050610e44565b506000610e8f83611158565b9050610eac33828460405180602001604052806000815250611488565b82336001600160a01b03167fef786aa24ef8fb4bc5f3121081042bdb89e5b397439b8857c5a63db682f4fbe48787866040516106be9392919061243d565b60608151835114610f1b5781518351604051635b05999160e01b815260048101929092526024820152604401610488565b6000835167ffffffffffffffff811115610f3757610f37611ea3565b604051908082528060200260200182016040528015610f60578160200160208202803683370190505b50905060005b8451811015610fb757602080820286010151610f8a906020808402870101516103da565b828281518110610f9c57610f9c6123c6565b6020908102919091010152610fb0816123f2565b9050610f66565b509392505050565b610fc76114e5565b610fd16000611658565b565b600060018211610fe557506000611054565b60005b8281101561104e57600085815260056020526040812090858584818110611011576110116123c6565b602090810292909201358352508101919091526040016000205460ff1661103c576000915050611054565b80611046816123f2565b915050610fe8565b50600190505b9392505050565b6110663383836116aa565b5050565b6110726114e5565b600082815260046020526040902060030154610100900460ff166110cf5760405162461bcd60e51b815260206004820152601460248201527315995c9cd948191bd95cc81b9bdd08195e1a5cdd60621b6044820152606401610488565b60008281526004602052604090206003015460ff161561112a5760405162461bcd60e51b815260206004820152601660248201527515995c9cd948185b1c9958591e481c995cdbdb1d995960521b6044820152606401610488565b600061113583611158565b905061115284828460405180602001604052806000815250611488565b50505050565b604051642a27a5a2a760d91b60208201526025810182905260009060450160408051601f19818403018152919052805160209091012092915050565b61119c6114e5565b600082815260046020526040902060030154610100900460ff16156111fa5760405162461bcd60e51b8152602060048201526014602482015273566572736520616c72656164792065786973747360601b6044820152606401610488565b600081815260046020526040902060030154610100900460ff166112305760405162461bcd60e51b815260040161048890612358565b60008181526004602052604090206003015460ff16156112625760405162461bcd60e51b81526004016104889061238f565b6040805160a0810182528381526020808201848152835160008082528184018652848601918252606085018190526001608086018190528882526004855295902084518155915194820194909455925180519293926112c79260028501920190611c4b565b5060608201516003909101805460809093015115156101000261ff00199215159290921661ffff19909316929092171790556000818152600460209081526040808320600201805460018101825590845291832090910184905551829184917f77aa49665a4efd92c75b853bd57f30284cb8ba327928848acdf2a34f0f25bfd79190a35050565b6001600160a01b03918216600090815260016020908152604080832093909416825291909152205460ff1690565b336001600160a01b038616811480159061139d575061139b868261134e565b155b156113ce5760405163711bec9160e11b81526001600160a01b03808316600483015287166024820152604401610488565b610a408686868686611740565b6113e36114e5565b6001600160a01b03811661140d57604051631e4fbdf760e01b815260006004820152602401610488565b61141681611658565b50565b6001600160a01b03831661144257604051626a0d4560e21b815260006004820152602401610488565b604080516001808252602082018590528183019081526060820184905260a08201909252600060808201818152919291611481918791859085906117ce565b5050505050565b6001600160a01b0384166114b257604051632bfa23e760e11b815260006004820152602401610488565b60408051600180825260208201869052818301908152606082018590526080820190925290610a406000878484876117ce565b6003546001600160a01b03163314610fd15760405163118cdaa760e01b8152336004820152602401610488565b6001600160a01b03841661153c57604051632bfa23e760e11b815260006004820152602401610488565b6001600160a01b03851661156557604051626a0d4560e21b815260006004820152602401610488565b61148185858585856117ce565b600081815260046020526040902060030154610100900460ff1615806115a9575060008181526004602052604090206003015460ff165b156115b15750565b600081815260046020908152604080832060038101805460ff191660011790556002018054825181850281018501909352808352919290919083018282801561161957602002820191906000526020600020905b815481526020019060010190808311611605575b5050505050905060005b815181101561165357611641828281518110610bc457610bc46123c6565b8061164b816123f2565b915050611623565b505050565b600380546001600160a01b038381166001600160a01b0319831681179093556040519116919082907f8be0079c531659141344cd1fd0a4f28419497f9722a3daafe3b4186f6b6457e090600090a35050565b6001600160a01b0382166116d35760405162ced3e160e81b815260006004820152602401610488565b6001600160a01b03838116600081815260016020908152604080832094871680845294825291829020805460ff191686151590811790915591519182527f17307eab39ab6107e8899845ad3d59bd9653f200f220920489ca2b5937696c31910160405180910390a3505050565b6001600160a01b03841661176a57604051632bfa23e760e11b815260006004820152602401610488565b6001600160a01b03851661179357604051626a0d4560e21b815260006004820152602401610488565b604080516001808252602082018690528183019081526060820185905260808201909252906117c587878484876117ce565b50505050505050565b6117da85858585611821565b6001600160a01b038416156114815782513390600103611813576020848101519084015161180c838989858589611a3e565b5050610a40565b610a40818787878787611b62565b80518251146118505781518151604051635b05999160e01b815260048101929092526024820152604401610488565b3360005b835181101561195f576020818102858101820151908501909101516001600160a01b03881615611907576000828152602081815260408083206001600160a01b038c168452909152902054818110156118e0576040516303dee4c560e01b81526001600160a01b038a166004820152602481018290526044810183905260648101849052608401610488565b6000838152602081815260408083206001600160a01b038d16845290915290209082900390555b6001600160a01b0387161561194c576000828152602081815260408083206001600160a01b038b168452909152812080548392906119469084906124b7565b90915550505b505080611958906123f2565b9050611854565b5082516001036119e05760208301516000906020840151909150856001600160a01b0316876001600160a01b0316846001600160a01b03167fc3d58168c5ae7397731d063d5bbf3d657854427343f4c083240f7aacaa2d0f6285856040516119d1929190918252602082015260400190565b60405180910390a45050611481565b836001600160a01b0316856001600160a01b0316826001600160a01b03167f4a39dc06d4c0dbc64b70af90fd698a233a518aa5d07e595d983b8c0526c8f7fb8686604051611a2f9291906124ca565b60405180910390a45050505050565b6001600160a01b0384163b15610a405760405163f23a6e6160e01b81526001600160a01b0385169063f23a6e6190611a8290899089908890889088906004016124f8565b6020604051808303816000875af1925050508015611abd575060408051601f3d908101601f19168201909252611aba9181019061253d565b60015b611b26573d808015611aeb576040519150601f19603f3d011682016040523d82523d6000602084013e611af0565b606091505b508051600003611b1e57604051632bfa23e760e11b81526001600160a01b0386166004820152602401610488565b805181602001fd5b6001600160e01b0319811663f23a6e6160e01b146117c557604051632bfa23e760e11b81526001600160a01b0386166004820152602401610488565b6001600160a01b0384163b15610a405760405163bc197c8160e01b81526001600160a01b0385169063bc197c8190611ba6908990899088908890889060040161255a565b6020604051808303816000875af1925050508015611be1575060408051601f3d908101601f19168201909252611bde9181019061253d565b60015b611c0f573d808015611aeb576040519150601f19603f3d011682016040523d82523d6000602084013e611af0565b6001600160e01b0319811663bc197c8160e01b146117c557604051632bfa23e760e11b81526001600160a01b0386166004820152602401610488565b828054828255906000526020600020908101928215611c86579160200282015b82811115611c86578251825591602001919060010190611c6b565b50611c92929150611c96565b5090565b5b80821115611c925760008155600101611c97565b80356001600160a01b0381168114611cc257600080fd5b919050565b60008060408385031215611cda57600080fd5b611ce383611cab565b946020939093013593505050565b6001600160e01b03198116811461141657600080fd5b600060208284031215611d1957600080fd5b813561105481611cf1565b60008083601f840112611d3657600080fd5b50813567ffffffffffffffff811115611d4e57600080fd5b6020830191508360208260051b8501011115611d6957600080fd5b9250929050565b60008060008060608587031215611d8657600080fd5b84359350602085013567ffffffffffffffff811115611da457600080fd5b611db087828801611d24565b9598909750949560400135949350505050565b600080600060408486031215611dd857600080fd5b83359250602084013567ffffffffffffffff811115611df657600080fd5b611e0286828701611d24565b9497909650939450505050565b600060208284031215611e2157600080fd5b5035919050565b6000815180845260005b81811015611e4e57602081850181015186830182015201611e32565b506000602082860101526020601f19601f83011685010191505092915050565b6020815260006110546020830184611e28565b60008060408385031215611e9457600080fd5b50508035926020909101359150565b634e487b7160e01b600052604160045260246000fd5b604051601f8201601f1916810167ffffffffffffffff81118282101715611ee257611ee2611ea3565b604052919050565b600067ffffffffffffffff821115611f0457611f04611ea3565b5060051b60200190565b600082601f830112611f1f57600080fd5b81356020611f34611f2f83611eea565b611eb9565b82815260059290921b84018101918181019086841115611f5357600080fd5b8286015b84811015611f6e5780358352918301918301611f57565b509695505050505050565b600082601f830112611f8a57600080fd5b813567ffffffffffffffff811115611fa457611fa4611ea3565b611fb7601f8201601f1916602001611eb9565b818152846020838601011115611fcc57600080fd5b816020850160208301376000918101602001919091529392505050565b600080600080600060a0868803121561200157600080fd5b61200a86611cab565b945061201860208701611cab565b9350604086013567ffffffffffffffff8082111561203557600080fd5b61204189838a01611f0e565b9450606088013591508082111561205757600080fd5b61206389838a01611f0e565b9350608088013591508082111561207957600080fd5b5061208688828901611f79565b9150509295509295909350565b6020808252825182820181905260009190848201906040850190845b818110156120cb578351835292840192918401916001016120af565b50909695505050505050565b600080600080606085870312156120ed57600080fd5b843567ffffffffffffffff81111561210457600080fd5b61211087828801611d24565b90989097506020870135966040013595509350505050565b6000806040838503121561213b57600080fd5b823567ffffffffffffffff8082111561215357600080fd5b818501915085601f83011261216757600080fd5b81356020612177611f2f83611eea565b82815260059290921b8401810191818101908984111561219657600080fd5b948201945b838610156121bb576121ac86611cab565b8252948201949082019061219b565b965050860135925050808211156121d157600080fd5b506121de85828601611f0e565b9150509250929050565b600081518084526020808501945080840160005b83811015612218578151875295820195908201906001016121fc565b509495945050505050565b60208152600061105460208301846121e8565b6000806040838503121561224957600080fd5b61225283611cab565b91506020830135801515811461226757600080fd5b809150509250929050565b60008060006060848603121561228757600080fd5b61229084611cab565b95602085013595506040909401359392505050565b600080604083850312156122b857600080fd5b6122c183611cab565b91506122cf60208401611cab565b90509250929050565b600080600080600060a086880312156122f057600080fd5b6122f986611cab565b945061230760208701611cab565b93506040860135925060608601359150608086013567ffffffffffffffff81111561233157600080fd5b61208688828901611f79565b60006020828403121561234f57600080fd5b61105482611cab565b6020808252601b908201527f506172656e7420766572736520646f6573206e6f742065786973740000000000604082015260600190565b6020808252601d908201527f506172656e7420766572736520616c7265616479207265736f6c766564000000604082015260600190565b634e487b7160e01b600052603260045260246000fd5b634e487b7160e01b600052601160045260246000fd5b600060018201612404576124046123dc565b5060010190565b81835260006001600160fb1b0383111561242457600080fd5b8260051b80836020870137939093016020019392505050565b60408152600061245160408301858761240b565b9050826020830152949350505050565b60208152600061247560208301848661240b565b949350505050565b600181811c9082168061249157607f821691505b6020821081036124b157634e487b7160e01b600052602260045260246000fd5b50919050565b808201808211156103fc576103fc6123dc565b6040815260006124dd60408301856121e8565b82810360208401526124ef81856121e8565b95945050505050565b6001600160a01b03868116825285166020820152604081018490526060810183905260a06080820181905260009061253290830184611e28565b979650505050505050565b60006020828403121561254f57600080fd5b815161105481611cf1565b6001600160a01b0386811682528516602082015260a060408201819052600090612586908301866121e8565b828103606084015261259881866121e8565b905082810360808401526125ac8185611e28565b9897505050505050505056fea264697066735822122095ccdfc461af5747fa5ef71bce7b2b20c9379450eb9fdb82b6a8e4b3cde9911c64736f6c63430008140033",
  "linkReferences": {},
  "deployedLinkReferences": {}
}