{
  "_format": "hh-sol-artifact-1",
  "contractName": "ConditionalToken",
  "sourceName": "contracts/ConditionalToken.sol",
  "abi": [
    {
      "inputs": [],
      "stateMutability": "nonpayable",
      "type": "constructor"
    },
    {
      "inputs": [
        {
          "internalType": "address",
          "name": "sender",
          "type": "address"
        },
        {
          "internalType": "uint256",
          "name": "balance",
          "type": "uint256"
        },
        {
          "internalType": "uint256",
          "name": "needed",
          "type": "uint256"
        },
        {
          "internalType": "uint256",
          "name": "tokenId",
          "type": "uint256"
        }
      ],
      "name": "ERC1155InsufficientBalance",
      "type": "error"
    },
    {
      "inputs": [
        {
          "internalType": "address",
          "name": "approver",
          "type": "address"
        }
      ],
      "name": "ERC1155InvalidApprover",
      "type": "error"
    },
    {
      "inputs": [
        {
          "internalType": "uint256",
          "name": "idsLength",
          "type": "uint256"
        },
        {
          "internalType": "uint256",
          "name": "valuesLength",
          "type": "uint256"
        }
      ],
      "name": "ERC1155InvalidArrayLength",
      "type": "error"
    },
    {
      "inputs": [
        {
          "internalType": "address",
          "name": "operator",
          "type": "address"
        }
      ],
      "name": "ERC1155InvalidOperator",
      "type": "error"
    },
    {
      "inputs": [
        {
          "internalType": "address",
          "name": "receiver",
          "type": "address"
        }
      ],
      "name": "ERC1155InvalidReceiver",
      "type": "error"
    },
    {
      "inputs": [
        {
          "internalType": "address",
          "name": "sender",
          "type": "address"
        }
      ],
      "name": "ERC1155InvalidSender",
      "type": "error"
    },
    {
      "inputs": [
        {
          "internalType": "address",
          "name": "operator",
          "type": "address"
        },
        {
          "internalType": "address",
          "name": "owner",
          "type": "address"
        }
      ],
      "name": "ERC1155MissingApprovalForAll",
      "type": "error"
    },
    {
      "inputs": [
        {
          "internalType": "address",
          "name": "owner",
          "type": "address"
        }
      ],
      "name": "OwnableInvalidOwner",
      "type": "error"
    },
    {
      "inputs": [
        {
          "internalType": "address",
          "name": "account",
          "type": "address"
        }
      ],
      "name": "OwnableUnauthorizedAccount",
      "type": "error"
    },
    {
      "anonymous": false,
      "inputs": [
        {
          "indexed": true,
          "internalType": "address",
          "name": "account",
          "type": "address"
        },
        {
          "indexed": true,
          "internalType": "address",
          "name": "operator",
          "type": "address"
        },
        {
          "indexed": false,
          "internalType": "bool",
          "name": "approved",
          "type": "bool"
        }
      ],
      "name": "ApprovalForAll",
      "type": "event"
    },
    {
      "anonymous": false,
      "inputs": [
        {
          "indexed": true,
          "internalType": "address",
          "name": "user",
          "type": "address"
        },
        {
          "indexed": false,
          "internalType": "bytes32[]",
          "name": "children",
          "type": "bytes32[]"
        },
        {
          "indexed": true,
          "internalType": "bytes32",
          "name": "parent",
          "type": "bytes32"
        },
        {
          "indexed": false,
          "internalType": "uint256",
          "name": "amount",
          "type": "uint256"
        }
      ],
      "name": "OwnershipCombined",
      "type": "event"
    },
    {
      "anonymous": false,
      "inputs": [
        {
          "indexed": true,
          "internalType": "address",
          "name": "user",
          "type": "address"
        },
        {
          "indexed": true,
          "internalType": "bytes32",
          "name": "parent",
          "type": "bytes32"
        },
        {
          "indexed": false,
          "internalType": "bytes32[]",
          "name": "children",
          "type": "bytes32[]"
        },
        {
          "indexed": false,
          "internalType": "uint256",
          "name": "amount",
          "type": "uint256"
        }
      ],
      "name": "OwnershipSplit",
      "type": "event"
    },
    {
      "anonymous": false,
      "inputs": [
        {
          "indexed": true,
          "internalType": "address",
          "name": "previousOwner",
          "type": "address"
        },
        {
          "indexed": true,
          "internalType": "address",
          "name": "newOwner",
          "type": "address"
        }
      ],
      "name": "OwnershipTransferred",
      "type": "event"
    },
    {
      "anonymous": false,
      "inputs": [
        {
          "indexed": true,
          "internalType": "bytes32",
          "name": "parent",
          "type": "bytes32"
        },
        {
          "indexed": false,
          "internalType": "bytes32[]",
          "name": "children",
          "type": "bytes32[]"
        }
      ],
      "name": "PartitionCreated",
      "type": "event"
    },
    {
      "anonymous": false,
      "inputs": [
        {
          "indexed": true,
          "internalType": "address",
          "name": "operator",
          "type": "address"
        },
        {
          "indexed": true,
          "internalType": "address",
          "name": "from",
          "type": "address"
        },
        {
          "indexed": true,
          "internalType": "address",
          "name": "to",
          "type": "address"
        },
        {
          "indexed": false,
          "internalType": "uint256[]",
          "name": "ids",
          "type": "uint256[]"
        },
        {
          "indexed": false,
          "internalType": "uint256[]",
          "name": "values",
          "type": "uint256[]"
        }
      ],
      "name": "TransferBatch",
      "type": "event"
    },
    {
      "anonymous": false,
      "inputs": [
        {
          "indexed": true,
          "internalType": "address",
          "name": "operator",
          "type": "address"
        },
        {
          "indexed": true,
          "internalType": "address",
          "name": "from",
          "type": "address"
        },
        {
          "indexed": true,
          "internalType": "address",
          "name": "to",
          "type": "address"
        },
        {
          "indexed": false,
          "internalType": "uint256",
          "name": "id",
          "type": "uint256"
        },
        {
          "indexed": false,
          "internalType": "uint256",
          "name": "value",
          "type": "uint256"
        }
      ],
      "name": "TransferSingle",
      "type": "event"
    },
    {
      "anonymous": false,
      "inputs": [
        {
          "indexed": false,
          "internalType": "string",
          "name": "value",
          "type": "string"
        },
        {
          "indexed": true,
          "internalType": "uint256",
          "name": "id",
          "type": "uint256"
        }
      ],
      "name": "URI",
      "type": "event"
    },
    {
      "anonymous": false,
      "inputs": [
        {
          "indexed": true,
          "internalType": "bytes32",
          "name": "verseId",
          "type": "bytes32"
        },
        {
          "indexed": true,
          "internalType": "bytes32",
          "name": "parent",
          "type": "bytes32"
        }
      ],
      "name": "VerseCreated",
      "type": "event"
    },
    {
      "anonymous": false,
      "inputs": [
        {
          "indexed": true,
          "internalType": "bytes32",
          "name": "verseId",
          "type": "bytes32"
        }
      ],
      "name": "VerseEvaporated",
      "type": "event"
    },
    {
      "anonymous": false,
      "inputs": [
        {
          "indexed": true,
          "internalType": "bytes32",
          "name": "verseId",
          "type": "bytes32"
        },
        {
          "indexed": false,
          "internalType": "bytes32",
          "name": "outcome",
          "type": "bytes32"
        }
      ],
      "name": "VerseResolved",
      "type": "event"
    },
    {
      "inputs": [],
      "name": "ROOT_VERSE",
      "outputs": [
        {
          "internalType": "bytes32",
          "name": "",
          "type": "bytes32"
        }
      ],
      "stateMutability": "view",
      "type": "function"
    },
    {
      "inputs": [
        {
          "internalType": "address",
          "name": "account",
          "type": "address"
        },
        {
          "internalType": "uint256",
          "name": "id",
          "type": "uint256"
        }
      ],
      "name": "balanceOf",
      "outputs": [
        {
          "internalType": "uint256",
          "name": "",
          "type": "uint256"
        }
      ],
      "stateMutability": "view",
      "type": "function"
    },
    {
      "inputs": [
        {
          "internalType": "address[]",
          "name": "accounts",
          "type": "address[]"
        },
        {
          "internalType": "uint256[]",
          "name": "ids",
          "type": "uint256[]"
        }
      ],
      "name": "balanceOfBatch",
      "outputs": [
        {
          "internalType": "uint256[]",
          "name": "",
          "type": "uint256[]"
        }
      ],
      "stateMutability": "view",
      "type": "function"
    },
    {
      "inputs": [
        {
          "internalType": "bytes32[]",
          "name": "children",
          "type": "bytes32[]"
        },
        {
          "internalType": "bytes32",
          "name": "parent",
          "type": "bytes32"
        },
        {
          "internalType": "uint256",
          "name": "amount",
          "type": "uint256"
        }
      ],
      "name": "combineOwnership",
      "outputs": [],
      "stateMutability": "nonpayable",
      "type": "function"
    },
    {
      "inputs": [
        {
          "internalType": "bytes32",
          "name": "parent",
          "type": "bytes32"
        },
        {
          "internalType": "bytes32[]",
          "name": "children",
          "type": "bytes32[]"
        }
      ],
      "name": "createPartition",
      "outputs": [],
      "stateMutability": "nonpayable",
      "type": "function"
    },
    {
      "inputs": [
        {
          "internalType": "bytes32",
          "name": "verseId",
          "type": "bytes32"
        },
        {
          "internalType": "bytes32",
          "name": "parent",
          "type": "bytes32"
        }
      ],
      "name": "createVerse",
      "outputs": [],
      "stateMutability": "nonpayable",
      "type": "function"
    },
    {
      "inputs": [
        {
          "internalType": "bytes32",
          "name": "verseId",
          "type": "bytes32"
        }
      ],
      "name": "getTokenId",
      "outputs": [
        {
          "internalType": "uint256",
          "name": "",
          "type": "uint256"
        }
      ],
      "stateMutability": "pure",
      "type": "function"
    },
    {
      "inputs": [
        {
          "internalType": "bytes32",
          "name": "verseId",
          "type": "bytes32"
        }
      ],
      "name": "getVerseChildren",
      "outputs": [
        {
          "internalType": "bytes32[]",
          "name": "",
          "type": "bytes32[]"
        }
      ],
      "stateMutability": "view",
      "type": "function"
    },
    {
      "inputs": [
        {
          "internalType": "address",
          "name": "account",
          "type": "address"
        },
        {
          "internalType": "address",
          "name": "operator",
          "type": "address"
        }
      ],
      "name": "isApprovedForAll",
      "outputs": [
        {
          "internalType": "bool",
          "name": "",
          "type": "bool"
        }
      ],
      "stateMutability": "view",
      "type": "function"
    },
    {
      "inputs": [
        {
          "internalType": "bytes32",
          "name": "parent",
          "type": "bytes32"
        },
        {
          "internalType": "bytes32[]",
          "name": "children",
          "type": "bytes32[]"
        }
      ],
      "name": "isValidPartition",
      "outputs": [
        {
          "internalType": "bool",
          "name": "",
          "type": "bool"
        }
      ],
      "stateMutability": "view",
      "type": "function"
    },
    {
      "inputs": [
        {
          "internalType": "address",
          "name": "to",
          "type": "address"
        },
        {
          "internalType": "bytes32",
          "name": "verseId",
          "type": "bytes32"
        },
        {
          "internalType": "uint256",
          "name": "amount",
          "type": "uint256"
        }
      ],
      "name": "mintToken",
      "outputs": [],
      "stateMutability": "nonpayable",
      "type": "function"
    },
    {
      "inputs": [],
      "name": "owner",
      "outputs": [
        {
          "internalType": "address",
          "name": "",
          "type": "address"
        }
      ],
      "stateMutability": "view",
      "type": "function"
    },
    {
      "inputs": [
        {
          "internalType": "bytes32",
          "name": "",
          "type": "bytes32"
        },
        {
          "internalType": "bytes32",
          "name": "",
          "type": "bytes32"
        }
      ],
      "name": "partitions",
      "outputs": [
        {
          "internalType": "bool",
          "name": "",
          "type": "bool"
        }
      ],
      "stateMutability": "view",
      "type": "function"
    },
    {
      "inputs": [],
      "name": "renounceOwnership",
      "outputs": [],
      "stateMutability": "nonpayable",
      "type": "function"
    },
    {
      "inputs": [
        {
          "internalType": "bytes32",
          "name": "verseId",
          "type": "bytes32"
        },
        {
          "internalType": "bytes32",
          "name": "outcome",
          "type": "bytes32"
        }
      ],
      "name": "resolveVerse",
      "outputs": [],
      "stateMutability": "nonpayable",
      "type": "function"
    },
    {
      "inputs": [
        {
          "internalType": "bytes32",
          "name": "",
          "type": "bytes32"
        }
      ],
      "name": "resolvedOutcome",
      "outputs": [
        {
          "internalType": "bytes32",
          "name": "",
          "type": "bytes32"
        }
      ],
      "stateMutability": "view",
      "type": "function"
    },
    {
      "inputs": [
        {
          "internalType": "address",
          "name": "from",
          "type": "address"
        },
        {
          "internalType": "address",
          "name": "to",
          "type": "address"
        },
        {
          "internalType": "uint256[]",
          "name": "ids",
          "type": "uint256[]"
        },
        {
          "internalType": "uint256[]",
          "name": "values",
          "type": "uint256[]"
        },
        {
          "internalType": "bytes",
          "name": "data",
          "type": "bytes"
        }
      ],
      "name": "safeBatchTransferFrom",
      "outputs": [],
      "stateMutability": "nonpayable",
      "type": "function"
    },
    {
      "inputs": [
        {
          "internalType": "address",
          "name": "from",
          "type": "address"
        },
        {
          "internalType": "address",
          "name": "to",
          "type": "address"
        },
        {
          "internalType": "uint256",
          "name": "id",
          "type": "uint256"
        },
        {
          "internalType": "uint256",
          "name": "value",
          "type": "uint256"
        },
        {
          "internalType": "bytes",
          "name": "data",
          "type": "bytes"
        }
      ],
      "name": "safeTransferFrom",
      "outputs": [],
      "stateMutability": "nonpayable",
      "type": "function"
    },
    {
      "inputs": [
        {
          "internalType": "address",
          "name": "operator",
          "type": "address"
        },
        {
          "internalType": "bool",
          "name": "approved",
          "type": "bool"
        }
      ],
      "name": "setApprovalForAll",
      "outputs": [],
      "stateMutability": "nonpayable",
      "type": "function"
    },
    {
      "inputs": [
        {
          "internalType": "bytes32",
          "name": "parent",
          "type": "bytes32"
        },
        {
          "internalType": "bytes32[]",
          "name": "children",
          "type": "bytes32[]"
        },
        {
          "internalType": "uint256",
          "name": "amount",
          "type": "uint256"
        }
      ],
      "name": "splitOwnership",
      "outputs": [],
      "stateMutability": "nonpayable",
      "type": "function"
    },
    {
      "inputs": [
        {
          "internalType": "bytes4",
          "name": "interfaceId",
          "type": "bytes4"
        }
      ],
      "name": "supportsInterface",
      "outputs": [
        {
          "internalType": "bool",
          "name": "",
          "type": "bool"
        }
      ],
      "stateMutability": "view",
      "type": "function"
    },
    {
      "inputs": [
        {
          "internalType": "address",
          "name": "newOwner",
          "type": "address"
        }
      ],
      "name": "transferOwnership",
      "outputs": [],
      "stateMutability": "nonpayable",
      "type": "function"
    },
    {
      "inputs": [
        {
          "internalType": "uint256",
          "name": "",
          "type": "uint256"
        }
      ],
      "name": "uri",
      "outputs": [
        {
          "internalType": "string",
          "name": "",
          "type": "string"
        }
      ],
      "stateMutability": "view",
      "type": "function"
    },
    {
      "inputs": [
        {
          "internalType": "bytes32",
          "name": "",
          "type": "bytes32"
        }
      ],
      "name": "verses",
      "outputs": [
        {
          "internalType": "bytes32",
          "name": "id",
          "type": "bytes32"
        },
        {
          "internalType": "bytes32",
          "name": "parent",
          "type": "bytes32"
        },
        {
          "internalType": "bool",
          "name": "resolved",
          "type": "bool"
        },
        {
          "internalType": "bool",
          "name": "exists",
          "type": "bool"
        }
      ],
      "stateMutability": "view",
      "type": "function"
    }
  ],
  "bytecode": "0x60806040523480156200001157600080fd5b5060408051602081019091526000815233906200002e816200015f565b506001600160a01b0381166200005e57604051631e4fbdf760e01b81526000600482015260240160405180910390fd5b620000698162000171565b506040805160a081018252600080825260208083018281528451838152808301865294840194855260608401839052600160808501529180526004815282517f17ef568e3e12ab5b9c7254a8d58478811de00f9e6eb34345acd53bf8fd09d3ec90815591517f17ef568e3e12ab5b9c7254a8d58478811de00f9e6eb34345acd53bf8fd09d3ed55925180519293919262000127927f17ef568e3e12ab5b9c7254a8d58478811de00f9e6eb34345acd53bf8fd09d3ee920190620001c3565b5060608201516003909101805460809093015115156101000261ff00199215159290921661ffff19909316929092171790556200039b565b60026200016d8282620002cf565b5050565b600380546001600160a01b038381166001600160a01b0319831681179093556040519116919082907f8be0079c531659141344cd1fd0a4f28419497f9722a3daafe3b4186f6b6457e090600090a35050565b82805482825590600052602060002090810192821562000201579160200282015b8281111562000201578251825591602001919060010190620001e4565b506200020f92915062000213565b5090565b5b808211156200020f576000815560010162000214565b634e487b7160e01b600052604160045260246000fd5b600181811c908216806200025557607f821691505b6020821081036200027657634e487b7160e01b600052602260045260246000fd5b50919050565b601f821115620002ca57600081815260208120601f850160051c81016020861015620002a55750805b601f850160051c820191505b81811015620002c657828155600101620002b1565b5050505b505050565b81516001600160401b03811115620002eb57620002eb6200022a565b6200030381620002fc845462000240565b846200027c565b602080601f8311600181146200033b5760008415620003225750858301515b600019600386901b1c1916600185901b178555620002c6565b600085815260208120601f198616915b828110156200036c578886015182559484019460019091019084016200034b565b50858210156200038b5787850151600019600388901b60f8161c191681555b5050505050600190811b01905550565b61262280620003ab6000396000f3fe608060405234801561001057600080fd5b50600436106101575760003560e01c806377f0b6c3116100c3578063c9cb65e11161007c578063c9cb65e11461035b578063d47e89f11461036e578063e133f12d1461038e578063e985e9c5146103a1578063f242432a146103b4578063f2fde38b146103c757600080fd5b806377f0b6c31461029c5780638da5cb5b146102ff5780638fcf198d1461031a5780639d870ee214610322578063a22cb46514610335578063a3ec7e411461034857600080fd5b80632eb2c2d6116101155780632eb2c2d61461021b57806333d7c3c61461022e578063430ce75114610241578063484ad17a146102615780634e1273f414610274578063715018a61461029457600080fd5b8062fdd58e1461015c57806301ffc9a714610182578063043f22d1146101a55780630c4b2efd146101ba5780630e89341c146101cd5780631a727332146101ed575b600080fd5b61016f61016a366004611cfb565b6103da565b6040519081526020015b60405180910390f35b610195610190366004611d3b565b610402565b6040519015158152602001610179565b6101b86101b3366004611da4565b610452565b005b6101b86101c8366004611df7565b6106cd565b6101e06101db366004611e43565b61094d565b6040516101799190611ea2565b6101956101fb366004611eb5565b600560209081526000928352604080842090915290825290205460ff1681565b6101b861022936600461201d565b6109e1565b6101b861023c366004611eb5565b610a48565b61025461024f366004611e43565b610c16565b60405161017991906120c7565b6101b861026f36600461210b565b610c7a565b61028761028236600461215c565b610eea565b6040516101799190612257565b6101b8610fbf565b6102d76102aa366004611e43565b60046020526000908152604090208054600182015460039092015490919060ff8082169161010090041684565b6040805194855260208501939093529015159183019190915215156060820152608001610179565b6003546040516001600160a01b039091168152602001610179565b61016f600081565b610195610330366004611df7565b610fd3565b6101b861034336600461226a565b61105b565b6101b86103563660046122a6565b61106a565b61016f610369366004611e43565b611158565b61016f61037c366004611e43565b60066020526000908152604090205481565b6101b861039c366004611eb5565b611194565b6101956103af3660046122d9565b61134e565b6101b86103c236600461230c565b61137c565b6101b86103d5366004612371565b6113db565b6000818152602081815260408083206001600160a01b03861684529091529020545b92915050565b60006001600160e01b03198216636cdb3d1360e11b148061043357506001600160e01b031982166303a24d0760e21b145b806103fc57506301ffc9a760e01b6001600160e01b03198316146103fc565b600084815260046020526040902060030154610100900460ff166104915760405162461bcd60e51b81526004016104889061238c565b60405180910390fd5b60008481526004602052604090206003015460ff16156104c35760405162461bcd60e51b8152600401610488906123c3565b6001821161051d5760405162461bcd60e51b815260206004820152602160248201527f4d7573742073706c697420696e746f206d756c7469706c65206368696c6472656044820152603760f91b6064820152608401610488565b60005b828110156105b857600085815260056020526040812090858584818110610549576105496123fa565b602090810292909201358352508101919091526040016000205460ff166105a65760405162461bcd60e51b815260206004820152601160248201527024b73b30b634b2103830b93a34ba34b7b760791b6044820152606401610488565b806105b081612426565b915050610520565b5060006105c485611158565b9050816105d133836103da565b10156106165760405162461bcd60e51b8152602060048201526014602482015273496e73756666696369656e742062616c616e636560601b6044820152606401610488565b610621338284611419565b60005b8381101561067f57600061064f868684818110610643576106436123fa565b90506020020135611158565b905061066c33828660405180602001604052806000815250611488565b508061067781612426565b915050610624565b5084336001600160a01b03167fbb4938dfa26b3920de3ef974c1beb165c8a9f4d911eb912051baf9314c1b5dd08686866040516106be93929190612471565b60405180910390a35050505050565b6106d56114e5565b600083815260046020526040902060030154610100900460ff1661070b5760405162461bcd60e51b81526004016104889061238c565b60008381526004602052604090206003015460ff161561073d5760405162461bcd60e51b8152600401610488906123c3565b6001811161079b5760405162461bcd60e51b815260206004820152602560248201527f506172746974696f6e206d7573742068617665206d756c7469706c652063686960448201526436323932b760d91b6064820152608401610488565b60005b8181101561090d57600460008484848181106107bc576107bc6123fa565b90506020020135815260200190815260200160002060030160019054906101000a900460ff1661082e5760405162461bcd60e51b815260206004820152601a60248201527f4368696c6420766572736520646f6573206e6f742065786973740000000000006044820152606401610488565b8360046000858585818110610845576108456123fa565b90506020020135815260200190815260200160002060010154146108ab5760405162461bcd60e51b815260206004820152601b60248201527f4368696c6420766572736520706172656e74206d69736d6174636800000000006044820152606401610488565b60008481526005602052604081206001918585858181106108ce576108ce6123fa565b90506020020135815260200190815260200160002060006101000a81548160ff021916908315150217905550808061090590612426565b91505061079e565b50827f489a2ed77dec1bcc0e788e005168f215089be4ac088aa3496e329fb3e83a18258383604051610940929190612495565b60405180910390a2505050565b60606002805461095c906124b1565b80601f0160208091040260200160405190810160405280929190818152602001828054610988906124b1565b80156109d55780601f106109aa576101008083540402835291602001916109d5565b820191906000526020600020905b8154815290600101906020018083116109b857829003601f168201915b50505050509050919050565b336001600160a01b0386168114801590610a025750610a00868261134e565b155b15610a335760405163711bec9160e11b81526001600160a01b03808316600483015287166024820152604401610488565b610a408686868686611512565b505050505050565b610a506114e5565b600082815260046020526040902060030154610100900460ff16610aad5760405162461bcd60e51b815260206004820152601460248201527315995c9cd948191bd95cc81b9bdd08195e1a5cdd60621b6044820152606401610488565b60008281526004602052604090206003015460ff1615610b085760405162461bcd60e51b815260206004820152601660248201527515995c9cd948185b1c9958591e481c995cdbdb1d995960521b6044820152606401610488565b600082815260046020818152604080842060038101805460ff1916600117905560068352818520869055928252600290920180548351818402810184019094528084529091830182828015610b7c57602002820191906000526020600020905b815481526020019060010190808311610b68575b5050505050905060005b8151811015610be35782828281518110610ba257610ba26123fa565b602002602001015114610bd157610bd1828281518110610bc457610bc46123fa565b6020026020010151611572565b80610bdb81612426565b915050610b86565b50827fd9938625aac456e812583f73c9ece1319d170aaa60bcbd883d6f17235c8db1aa8360405161094091815260200190565b6000818152600460209081526040918290206002018054835181840281018401909452808452606093928301828280156109d557602002820191906000526020600020905b815481526020019060010190808311610c5b5750505050509050919050565b600082815260046020526040902060030154610100900460ff16610cb05760405162461bcd60e51b81526004016104889061238c565b60008281526004602052604090206003015460ff1615610ce25760405162461bcd60e51b8152600401610488906123c3565b60018311610d325760405162461bcd60e51b815260206004820152601e60248201527f4d75737420636f6d62696e65206d756c7469706c65206368696c6472656e00006044820152606401610488565b60005b83811015610e4057600083815260056020526040812090868684818110610d5e57610d5e6123fa565b602090810292909201358352508101919091526040016000205460ff16610dbb5760405162461bcd60e51b815260206004820152601160248201527024b73b30b634b2103830b93a34ba34b7b760791b6044820152606401610488565b6000610dd2868684818110610643576106436123fa565b905082610ddf33836103da565b1015610e2d5760405162461bcd60e51b815260206004820152601a60248201527f496e73756666696369656e74206368696c642062616c616e63650000000000006044820152606401610488565b5080610e3881612426565b915050610d35565b5060005b83811015610e83576000610e63868684818110610643576106436123fa565b9050610e70338285611419565b5080610e7b81612426565b915050610e44565b506000610e8f83611158565b9050610eac33828460405180602001604052806000815250611488565b82336001600160a01b03167fef786aa24ef8fb4bc5f3121081042bdb89e5b397439b8857c5a63db682f4fbe48787866040516106be93929190612471565b60608151835114610f1b5781518351604051635b05999160e01b815260048101929092526024820152604401610488565b6000835167ffffffffffffffff811115610f3757610f37611ed7565b604051908082528060200260200182016040528015610f60578160200160208202803683370190505b50905060005b8451811015610fb757602080820286010151610f8a906020808402870101516103da565b828281518110610f9c57610f9c6123fa565b6020908102919091010152610fb081612426565b9050610f66565b509392505050565b610fc76114e5565b610fd1600061168c565b565b600060018211610fe557506000611054565b60005b8281101561104e57600085815260056020526040812090858584818110611011576110116123fa565b602090810292909201358352508101919091526040016000205460ff1661103c576000915050611054565b8061104681612426565b915050610fe8565b50600190505b9392505050565b6110663383836116de565b5050565b6110726114e5565b600082815260046020526040902060030154610100900460ff166110cf5760405162461bcd60e51b815260206004820152601460248201527315995c9cd948191bd95cc81b9bdd08195e1a5cdd60621b6044820152606401610488565b60008281526004602052604090206003015460ff161561112a5760405162461bcd60e51b815260206004820152601660248201527515995c9cd948185b1c9958591e481c995cdbdb1d995960521b6044820152606401610488565b600061113583611158565b905061115284828460405180602001604052806000815250611488565b50505050565b604051642a27a5a2a760d91b60208201526025810182905260009060450160408051601f19818403018152919052805160209091012092915050565b61119c6114e5565b600082815260046020526040902060030154610100900460ff16156111fa5760405162461bcd60e51b8152602060048201526014602482015273566572736520616c72656164792065786973747360601b6044820152606401610488565b600081815260046020526040902060030154610100900460ff166112305760405162461bcd60e51b81526004016104889061238c565b60008181526004602052604090206003015460ff16156112625760405162461bcd60e51b8152600401610488906123c3565b6040805160a0810182528381526020808201848152835160008082528184018652848601918252606085018190526001608086018190528882526004855295902084518155915194820194909455925180519293926112c79260028501920190611c7f565b5060608201516003909101805460809093015115156101000261ff00199215159290921661ffff19909316929092171790556000818152600460209081526040808320600201805460018101825590845291832090910184905551829184917f77aa49665a4efd92c75b853bd57f30284cb8ba327928848acdf2a34f0f25bfd79190a35050565b6001600160a01b03918216600090815260016020908152604080832093909416825291909152205460ff1690565b336001600160a01b038616811480159061139d575061139b868261134e565b155b156113ce5760405163711bec9160e11b81526001600160a01b03808316600483015287166024820152604401610488565b610a408686868686611774565b6113e36114e5565b6001600160a01b03811661140d57604051631e4fbdf760e01b815260006004820152602401610488565b6114168161168c565b50565b6001600160a01b03831661144257604051626a0d4560e21b815260006004820152602401610488565b604080516001808252602082018590528183019081526060820184905260a0820190925260006080820181815291929161148191879185908590611802565b5050505050565b6001600160a01b0384166114b257604051632bfa23e760e11b815260006004820152602401610488565b60408051600180825260208201869052818301908152606082018590526080820190925290610a40600087848487611802565b6003546001600160a01b03163314610fd15760405163118cdaa760e01b8152336004820152602401610488565b6001600160a01b03841661153c57604051632bfa23e760e11b815260006004820152602401610488565b6001600160a01b03851661156557604051626a0d4560e21b815260006004820152602401610488565b6114818585858585611802565b600081815260046020526040902060030154610100900460ff1615806115a9575060008181526004602052604090206003015460ff165b156115b15750565b600081815260046020526040808220600301805460ff191660011790555182917f01816312671fbb871b69772e2e5d59b0c521ab0b4b6a253fd145735970fd449691a260008181526004602090815260408083206002018054825181850281018501909352808352919290919083018282801561164d57602002820191906000526020600020905b815481526020019060010190808311611639575b5050505050905060005b815181101561168757611675828281518110610bc457610bc46123fa565b8061167f81612426565b915050611657565b505050565b600380546001600160a01b038381166001600160a01b0319831681179093556040519116919082907f8be0079c531659141344cd1fd0a4f28419497f9722a3daafe3b4186f6b6457e090600090a35050565b6001600160a01b0382166117075760405162ced3e160e81b815260006004820152602401610488565b6001600160a01b03838116600081815260016020908152604080832094871680845294825291829020805460ff191686151590811790915591519182527f17307eab39ab6107e8899845ad3d59bd9653f200f220920489ca2b5937696c31910160405180910390a3505050565b6001600160a01b03841661179e57604051632bfa23e760e11b815260006004820152602401610488565b6001600160a01b0385166117c757604051626a0d4560e21b815260006004820152602401610488565b604080516001808252602082018690528183019081526060820185905260808201909252906117f98787848487611802565b50505050505050565b61180e85858585611855565b6001600160a01b0384161561148157825133906001036118475760208481015190840151611840838989858589611a72565b5050610a40565b610a40818787878787611b96565b80518251146118845781518151604051635b05999160e01b815260048101929092526024820152604401610488565b3360005b8351811015611993576020818102858101820151908501909101516001600160a01b0388161561193b576000828152602081815260408083206001600160a01b038c16845290915290205481811015611914576040516303dee4c560e01b81526001600160a01b038a166004820152602481018290526044810183905260648101849052608401610488565b6000838152602081815260408083206001600160a01b038d16845290915290209082900390555b6001600160a01b03871615611980576000828152602081815260408083206001600160a01b038b1684529091528120805483929061197a9084906124eb565b90915550505b50508061198c90612426565b9050611888565b508251600103611a145760208301516000906020840151909150856001600160a01b0316876001600160a01b0316846001600160a01b03167fc3d58168c5ae7397731d063d5bbf3d657854427343f4c083240f7aacaa2d0f628585604051611a05929190918252602082015260400190565b60405180910390a45050611481565b836001600160a01b0316856001600160a01b0316826001600160a01b03167f4a39dc06d4c0dbc64b70af90fd698a233a518aa5d07e595d983b8c0526c8f7fb8686604051611a639291906124fe565b60405180910390a45050505050565b6001600160a01b0384163b15610a405760405163f23a6e6160e01b81526001600160a01b0385169063f23a6e6190611ab6908990899088908890889060040161252c565b6020604051808303816000875af1925050508015611af1575060408051601f3d908101601f19168201909252611aee91810190612571565b60015b611b5a573d808015611b1f576040519150601f19603f3d011682016040523d82523d6000602084013e611b24565b606091505b508051600003611b5257604051632bfa23e760e11b81526001600160a01b0386166004820152602401610488565b805181602001fd5b6001600160e01b0319811663f23a6e6160e01b146117f957604051632bfa23e760e11b81526001600160a01b0386166004820152602401610488565b6001600160a01b0384163b15610a405760405163bc197c8160e01b81526001600160a01b0385169063bc197c8190611bda908990899088908890889060040161258e565b6020604051808303816000875af1925050508015611c15575060408051601f3d908101601f19168201909252611c1291810190612571565b60015b611c43573d808015611b1f576040519150601f19603f3d011682016040523d82523d6000602084013e611b24565b6001600160e01b0319811663bc197c8160e01b146117f957604051632bfa23e760e11b81526001600160a01b0386166004820152602401610488565b828054828255906000526020600020908101928215611cba579160200282015b82811115611cba578251825591602001919060010190611c9f565b50611cc6929150611cca565b5090565b5b80821115611cc65760008155600101611ccb565b80356001600160a01b0381168114611cf657600080fd5b919050565b60008060408385031215611d0e57600080fd5b611d1783611cdf565b946020939093013593505050565b6001600160e01b03198116811461141657600080fd5b600060208284031215611d4d57600080fd5b813561105481611d25565b60008083601f840112611d6a57600080fd5b50813567ffffffffffffffff811115611d8257600080fd5b6020830191508360208260051b8501011115611d9d57600080fd5b9250929050565b60008060008060608587031215611dba57600080fd5b84359350602085013567ffffffffffffffff811115611dd857600080fd5b611de487828801611d58565b9598909750949560400135949350505050565b600080600060408486031215611e0c57600080fd5b83359250602084013567ffffffffffffffff811115611e2a57600080fd5b611e3686828701611d58565b9497909650939450505050565b600060208284031215611e5557600080fd5b5035919050565b6000815180845260005b81811015611e8257602081850181015186830182015201611e66565b506000602082860101526020601f19601f83011685010191505092915050565b6020815260006110546020830184611e5c565b60008060408385031215611ec857600080fd5b50508035926020909101359150565b634e487b7160e01b600052604160045260246000fd5b604051601f8201601f1916810167ffffffffffffffff81118282101715611f1657611f16611ed7565b604052919050565b600067ffffffffffffffff821115611f3857611f38611ed7565b5060051b60200190565b600082601f830112611f5357600080fd5b81356020611f68611f6383611f1e565b611eed565b82815260059290921b84018101918181019086841115611f8757600080fd5b8286015b84811015611fa25780358352918301918301611f8b565b509695505050505050565b600082601f830112611fbe57600080fd5b813567ffffffffffffffff811115611fd857611fd8611ed7565b611feb601f8201601f1916602001611eed565b81815284602083860101111561200057600080fd5b816020850160208301376000918101602001919091529392505050565b600080600080600060a0868803121561203557600080fd5b61203e86611cdf565b945061204c60208701611cdf565b9350604086013567ffffffffffffffff8082111561206957600080fd5b61207589838a01611f42565b9450606088013591508082111561208b57600080fd5b61209789838a01611f42565b935060808801359150808211156120ad57600080fd5b506120ba88828901611fad565b9150509295509295909350565b6020808252825182820181905260009190848201906040850190845b818110156120ff578351835292840192918401916001016120e3565b50909695505050505050565b6000806000806060858703121561212157600080fd5b843567ffffffffffffffff81111561213857600080fd5b61214487828801611d58565b90989097506020870135966040013595509350505050565b6000806040838503121561216f57600080fd5b823567ffffffffffffffff8082111561218757600080fd5b818501915085601f83011261219b57600080fd5b813560206121ab611f6383611f1e565b82815260059290921b840181019181810190898411156121ca57600080fd5b948201945b838610156121ef576121e086611cdf565b825294820194908201906121cf565b9650508601359250508082111561220557600080fd5b5061221285828601611f42565b9150509250929050565b600081518084526020808501945080840160005b8381101561224c57815187529582019590820190600101612230565b509495945050505050565b602081526000611054602083018461221c565b6000806040838503121561227d57600080fd5b61228683611cdf565b91506020830135801515811461229b57600080fd5b809150509250929050565b6000806000606084860312156122bb57600080fd5b6122c484611cdf565b95602085013595506040909401359392505050565b600080604083850312156122ec57600080fd5b6122f583611cdf565b915061230360208401611cdf565b90509250929050565b600080600080600060a0868803121561232457600080fd5b61232d86611cdf565b945061233b60208701611cdf565b93506040860135925060608601359150608086013567ffffffffffffffff81111561236557600080fd5b6120ba88828901611fad565b60006020828403121561238357600080fd5b61105482611cdf565b6020808252601b908201527f506172656e7420766572736520646f6573206e6f742065786973740000000000604082015260600190565b6020808252601d908201527f506172656e7420766572736520616c7265616479207265736f6c766564000000604082015260600190565b634e487b7160e01b600052603260045260246000fd5b634e487b7160e01b600052601160045260246000fd5b60006001820161243857612438612410565b5060010190565b81835260006001600160fb1b0383111561245857600080fd5b8260051b80836020870137939093016020019392505050565b60408152600061248560408301858761243f565b9050826020830152949350505050565b6020815260006124a960208301848661243f565b949350505050565b600181811c908216806124c557607f821691505b6020821081036124e557634e487b7160e01b600052602260045260246000fd5b50919050565b808201808211156103fc576103fc612410565b604081526000612511604083018561221c565b8281036020840152612523818561221c565b95945050505050565b6001600160a01b03868116825285166020820152604081018490526060810183905260a06080820181905260009061256690830184611e5c565b979650505050505050565b60006020828403121561258357600080fd5b815161105481611d25565b6001600160a01b0386811682528516602082015260a0604082018190526000906125ba9083018661221c565b82810360608401526125cc818661221c565b905082810360808401526125e08185611e5c565b9897505050505050505056fea2646970667358221220aeb5ad5916bbfa35952df084a35f088f1ed7268ee2562de8edb4f1f91f4e36d864736f6c63430008140033",
  "linkReferences": {},
  "deployedLinkReferences": {}
}