{"contracts/MultiverseAMM.sol":{"MultiverseAMM":{"abi":[{"inputs":[{"internalType":"address","name":"_conditionalToken","type":"address"}],"stateMutability":"nonpayable","type":"constructor"},{"inputs":[{"internalType":"address","name":"owner","type":"address"}],"name":"OwnableInvalidOwner","type":"error"},{"inputs":[{"internalType":"address","name":"account","type":"address"}],"name":"OwnableUnauthorizedAccount","type":"error"},{"inputs":[],"name":"ReentrancyGuardReentrantCall","type":"error"},{"anonymous":false,"inputs":[{"indexed":true,"internalType":"bytes32","name":"verseId","type":"bytes32"},{"indexed":true,"internalType":"uint256","name":"tokenA","type":"uint256"},{"indexed":true,"internalType":"uint256","name":"tokenB","type":"uint256"},{"indexed":false,"internalType":"address","name":"provider","type":"address"},{"indexed":false,"internalType":"uint256","name":"amountA","type":"uint256"},{"indexed":false,"internalType":"uint256","name":"amountB","type":"uint256"},{"indexed":false,"internalType":"uint256","name":"shares","type":"uint256"}],"name":"LiquidityAdded","type":"event"},{"anonymous":false,"inputs":[{"indexed":true,"internalType":"bytes32","name":"verseId","type":"bytes32"},{"indexed":true,"internalType":"uint256","name":"tokenA","type":"uint256"},{"indexed":true,"internalType":"uint256","name":"tokenB","type":"uint256"},{"indexed":false,"internalType":"address","name":"provider","type":"address"},{"indexed":false,"internalType":"uint256","name":"amountA","type":"uint256"},{"indexed":false,"internalType":"uint256","name":"amountB","type":"uint256"},{"indexed":false,"internalType":"uint256","name":"shares","type":"uint256"}],"name":"LiquidityRemoved","type":"event"},{"anonymous":false,"inputs":[{"indexed":true,"internalType":"address","name":"previousOwner","type":"address"},{"indexed":true,"internalType":"address","name":"newOwner","type":"address"}],"name":"OwnershipTransferred","type":"event"},{"anonymous":false,"inputs":[{"indexed":true,"internalType":"bytes32","name":"verseId","type":"bytes32"},{"indexed":true,"internalType":"uint256","name":"tokenA","type":"uint256"},{"indexed":true,"internalType":"uint256","name":"tokenB","type":"uint256"}],"name":"PoolCreated","type":"event"},{"anonymous":false,"inputs":[{"indexed":true,"internalType":"bytes32","name":"verseId","type":"bytes32"},{"indexed":true,"internalType":"uint256","name":"tokenA","type":"uint256"},{"indexed":true,"internalType":"uint256","name":"tokenB","type":"uint256"}],"name":"PoolEvaporated","type":"event"},{"anonymous":false,"inputs":[{"indexed":true,"internalType":"bytes32","name":"verseId","type":"bytes32"},{"indexed":true,"internalType":"uint256","name":"tokenIn","type":"uint256"},{"indexed":true,"internalType":"uint256","name":"tokenOut","type":"uint256"},{"indexed":false,"internalType":"address","name":"user","type":"address"},{"indexed":false,"internalType":"uint256","name":"amountIn","type":"uint256"},{"indexed":false,"internalType":"uint256","name":"amountOut","type":"uint256"}],"name":"Swap","type":"event"},{"inputs":[{"internalType":"bytes32","name":"verseId","type":"bytes32"},{"internalType":"uint256","name":"tokenA","type":"uint256"},{"internalType":"uint256","name":"tokenB","type":"uint256"},{"internalType":"uint256","name":"amountADesired","type":"uint256"},{"internalType":"uint256","name":"amountBDesired","type":"uint256"},{"internalType":"uint256","name":"amountAMin","type":"uint256"},{"internalType":"uint256","name":"amountBMin","type":"uint256"}],"name":"addLiquidity","outputs":[{"internalType":"uint256","name":"amountA","type":"uint256"},{"internalType":"uint256","name":"amountB","type":"uint256"},{"internalType":"uint256","name":"shares","type":"uint256"}],"stateMutability":"nonpayable","type":"function"},{"inputs":[],"name":"conditionalToken","outputs":[{"internalType":"contract ConditionalToken","name":"","type":"address"}],"stateMutability":"view","type":"function"},{"inputs":[{"internalType":"bytes32","name":"verseId","type":"bytes32"},{"internalType":"uint256","name":"tokenA","type":"uint256"},{"internalType":"uint256","name":"tokenB","type":"uint256"}],"name":"createPool","outputs":[],"stateMutability":"nonpayable","type":"function"},{"inputs":[{"internalType":"bytes32","name":"verseId","type":"bytes32"}],"name":"evaporateVerse","outputs":[],"stateMutability":"nonpayable","type":"function"},{"inputs":[{"internalType":"uint256","name":"amountIn","type":"uint256"},{"internalType":"bytes32","name":"verseId","type":"bytes32"},{"internalType":"uint256","name":"tokenIn","type":"uint256"},{"internalType":"uint256","name":"tokenOut","type":"uint256"}],"name":"getAmountOut","outputs":[{"internalType":"uint256","name":"","type":"uint256"}],"stateMutability":"view","type":"function"},{"inputs":[{"internalType":"bytes32","name":"verseId","type":"bytes32"},{"internalType":"uint256","name":"tokenA","type":"uint256"},{"internalType":"uint256","name":"tokenB","type":"uint256"}],"name":"getReserves","outputs":[{"internalType":"uint256","name":"reserveA","type":"uint256"},{"internalType":"uint256","name":"reserveB","type":"uint256"}],"stateMutability":"view","type":"function"},{"inputs":[{"internalType":"bytes32","name":"verseId","type":"bytes32"},{"internalType":"uint256","name":"tokenA","type":"uint256"},{"internalType":"uint256","name":"tokenB","type":"uint256"},{"internalType":"address","name":"user","type":"address"}],"name":"getUserShares","outputs":[{"internalType":"uint256","name":"","type":"uint256"}],"stateMutability":"view","type":"function"},{"inputs":[{"internalType":"address","name":"","type":"address"},{"internalType":"address","name":"","type":"address"},{"internalType":"uint256[]","name":"","type":"uint256[]"},{"internalType":"uint256[]","name":"","type":"uint256[]"},{"internalType":"bytes","name":"","type":"bytes"}],"name":"onERC1155BatchReceived","outputs":[{"internalType":"bytes4","name":"","type":"bytes4"}],"stateMutability":"nonpayable","type":"function"},{"inputs":[{"internalType":"address","name":"","type":"address"},{"internalType":"address","name":"","type":"address"},{"internalType":"uint256","name":"","type":"uint256"},{"internalType":"uint256","name":"","type":"uint256"},{"internalType":"bytes","name":"","type":"bytes"}],"name":"onERC1155Received","outputs":[{"internalType":"bytes4","name":"","type":"bytes4"}],"stateMutability":"nonpayable","type":"function"},{"inputs":[],"name":"owner","outputs":[{"internalType":"address","name":"","type":"address"}],"stateMutability":"view","type":"function"},{"inputs":[{"internalType":"bytes32","name":"","type":"bytes32"},{"internalType":"uint256","name":"","type":"uint256"},{"internalType":"uint256","name":"","type":"uint256"}],"name":"pools","outputs":[{"internalType":"uint256","name":"reserveA","type":"uint256"},{"internalType":"uint256","name":"reserveB","type":"uint256"},{"internalType":"uint256","name":"totalShares","type":"uint256"},{"internalType":"bool","name":"exists","type":"bool"}],"stateMutability":"view","type":"function"},{"inputs":[{"internalType":"bytes32","name":"verseId","type":"bytes32"},{"internalType":"uint256","name":"tokenA","type":"uint256"},{"internalType":"uint256","name":"tokenB","type":"uint256"},{"internalType":"uint256","name":"shares","type":"uint256"},{"internalType":"uint256","name":"amountAMin","type":"uint256"},{"internalType":"uint256","name":"amountBMin","type":"uint256"}],"name":"removeLiquidity","outputs":[{"internalType":"uint256","name":"amountA","type":"uint256"},{"internalType":"uint256","name":"amountB","type":"uint256"}],"stateMutability":"nonpayable","type":"function"},{"inputs":[],"name":"renounceOwnership","outputs":[],"stateMutability":"nonpayable","type":"function"},{"inputs":[{"internalType":"bytes4","name":"interfaceId","type":"bytes4"}],"name":"supportsInterface","outputs":[{"internalType":"bool","name":"","type":"bool"}],"stateMutability":"view","type":"function"},{"inputs":[{"internalType":"bytes32","name":"verseId","type":"bytes32"},{"internalType":"uint256","name":"tokenIn","type":"uint256"},{"internalType":"uint256","name":"tokenOut","type":"uint256"},{"internalType":"uint256","name":"amountIn","type":"uint256"},{"internalType":"uint256","name":"amountOutMin","type":"uint256"}],"name":"swap","outputs":[{"internalType":"uint256","name":"amountOut","type":"uint256"}],"stateMutability":"nonpayable","type":"function"},{"inputs":[{"internalType":"address","name":"newOwner","type":"address"}],"name":"transferOwnership","outputs":[],"stateMutability":"nonpayable","type":"function"}],"evm":{"bytecode":{"linkReferences":{},"object":"60a0346100ef57601f61179338819003918201601f19168301916001600160401b038311848410176100f4578084926020946040528339810103126100ef57516001600160a01b0390818116908190036100ef5733156100d6576000543360018060a01b0319821617600055604051923391167f8be0079c531659141344cd1fd0a4f28419497f9722a3daafe3b4186f6b6457e0600080a360018055608052611688908161010b82396080518181816101d4015281816102ac015281816107ac015281816108ff01528181610bb201526110790152f35b604051631e4fbdf760e01b815260006004820152602490fd5b600080fd5b634e487b7160e01b600052604160045260246000fdfe6080604081815260048036101561001557600080fd5b600092833560e01c90816301ffc9a714611146575080630a27a0fb146110425780630a335d5e14610fd85780631a1adec714610f5c5780633763a83314610ee5578063715018a614610e8b5780638da5cb5b14610e6357806391d39c3f14610b765780639e3fdd4b146108c3578063b3a2199d1461077f578063bc197c81146106f8578063bef39da514610260578063c2e4a52f14610207578063ea3b3c45146101bf578063f23a6e61146101665763f2fde38b146100d357600080fd5b34610162576020366003190112610162576100ec6111b9565b906100f56112ef565b6001600160a01b0391821692831561014c575050600054826bffffffffffffffffffffffff60a01b821617600055167f8be0079c531659141344cd1fd0a4f28419497f9722a3daafe3b4186f6b6457e0600080a380f35b51631e4fbdf760e01b8152908101849052602490fd5b8280fd5b5091346101bc5760a03660031901126101bc576101816111b9565b5061018a6111cf565b506084359067ffffffffffffffff82116101bc57506020926101ae91369101611298565b505163f23a6e6160e01b8152f35b80fd5b505034610203578160031936011261020357517f00000000000000000000000000000000000000000000000000000000000000006001600160a01b03168152602090f35b5080fd5b5034610162578160809361021a3661119a565b91835260026020528383209083526020528282209082526020522080549260ff600183015493600284015493015416928151948552602085015283015215156060820152f35b509190346102035760e036600319011261020357823590602491823593604435606435906084359360a4359360c435906102986114eb565b87516377f0b6c360e01b81528b81018490527f00000000000000000000000000000000000000000000000000000000000000006001600160a01b031696906080818c818b5afa80156106ee579061030291849185916106b5575b506102fc90611358565b1561139b565b848b109a8b156106af5794955b8b156106a957979a5b156106a35791955b8382528b602097600289528a842087855289528a842088855289528a84209d8e015460ff1661034e9061141f565b8d600281019586549283156000146105745750505050610370899c809a611461565b9a8360038d111561056557508b60019080821c82810180911161055357908e5b8210610533575050505b8b156104f157505b813b15610162578b8a518481806103c9637921219560e11b958683528c30338a86016114aa565b038183885af180156104e7579085916104d3575b5050823b156104cf5789928492838a936104068f519788968795869485523090339086016114aa565b03925af180156104c5576104b1575b5050896003916104288b60609d546114de565b8255600182016104398982546114de565b90556104468a82546114de565b9055336000520184528560002061045e8882546114de565b905585513381526020810189905260408101869052606081018890527f7e2c5dae32ff81cf5cb23229fc0ba0850e39b3be86f176b93014a388d25e000790608090a4600180558251948552840152820152f35b6104bb82916111e5565b6101bc5780610415565b89513d84823e3d90fd5b8380fd5b6104dc906111e5565b6104cf5783386103dd565b8c513d87823e3d90fd5b8a5162461bcd60e51b8152918201899052601d908201527f496e73756666696369656e74206c6971756964697479206d696e7465640000006044820152606490fd5b61054b9e50819e8f92610546818461148a565b6114de565b831c91610390565b634e487b7160e01b8752601185528387fd5b9b1561039a5760019b5061039a565b82949e91939f6001819e9401549461059861058f8787611461565b9754809861148a565b9e8f1161061f5750508c106105e55750908d92919d8e6105ce936105c26105c2936105c793611461565b61148a565b938c611461565b808210156105de57505b996103a2565b90506105d8565b8d60156064928f8e90519362461bcd60e51b855284015282015274125b9cdd59999a58da595b9d081088185b5bdd5b9d605a1b6044820152fd5b91509c50610632846105c28f8890611461565b928311159081610698575b501561065e5750908d92919d8e6105ce936105c26105c2936105c793611461565b8d60156064928f8e90519362461bcd60e51b855284015282015274125b9cdd59999a58da595b9d081048185b5bdd5b9d605a1b6044820152fd5b90508210153861063d565b95610320565b9a610318565b9561030f565b6102fc92506106db915060803d81116106e7575b6106d3818361120f565b810190611328565b939250905091906102f2565b503d6106c9565b8a513d85823e3d90fd5b5091346101bc5760a03660031901126101bc576107136111b9565b5061071c6111cf565b5067ffffffffffffffff906044358281116102035761073e9036908601611231565b50606435828111610203576107569036908601611231565b506084359182116101bc575060209261077191369101611298565b505163bc197c8160e01b8152f35b50346101625761078e3661119a565b84516377f0b6c360e01b8152808501849052909391906080816024817f00000000000000000000000000000000000000000000000000000000000000006001600160a01b03165afa9081156108b9576107f391889189916106b557506102fc90611358565b6107ff848214156113e0565b838110156108b35792935b8286526020600281528187208588528152818720868852815260ff8383892001541661087c578387526002815281872085885281528187208688529052852001805460ff191660011790557f704e80777b19ae920d50255d1ebd98770035d35b444f893abba5b885b232f5478480a480f35b905162461bcd60e51b8152918201526013602482015272506f6f6c20616c72656164792065786973747360681b6044820152606490fd5b9361080a565b86513d89823e3d90fd5b5090346101625760a036600319011261016257813560243560443591606435956108eb6114eb565b84516377f0b6c360e01b81528681018390527f00000000000000000000000000000000000000000000000000000000000000006001600160a01b03169190608081602481865afa8015610b6c579061094f91839184916106b557506102fc90611358565b61095b858514156113e0565b8715610b325784841015610b2a578390855b84825260026020528782208383526020528782209082526020528681209261099a60ff8a8601541661141f565b6109c884549384151580610b1d575b6109b290611567565b8714938415610b13576001860154905b8c6115ac565b986109d76084358b101561150e565b813b15610162578a89518481806109fe637921219560e11b958683528d30338a86016114aa565b038183885af18015610b0957908591610af5575b5050823b156104cf578a928492838b93610a3b8e519788968795869485523390309086016114aa565b03925af18015610aeb57610ad7575b50506020977f9d966be334d2c55096c0f8e38511b57ff318ada4143c9f66e75bdebbe13159b792606092600014610ab45780610a8983600193546114de565b815501610a9789825461155a565b90555b865190338252898201528787820152a46001805551908152f35b60018101610ac38382546114de565b9055610ad089825461155a565b9055610a9a565b610ae182916111e5565b6101bc5780610a4a565b88513d84823e3d90fd5b610afe906111e5565b6104cf578338610a12565b8b513d87823e3d90fd5b60018601546109c2565b50600186015415156109a9565b84908461096d565b855162461bcd60e51b81526020818901526014602482015273125b9d985b1a59081a5b9c1d5d08185b5bdd5b9d60621b6044820152606490fd5b87513d84823e3d90fd5b508290346102035760c036600319011261020357602435916064356044358335610b9e6114eb565b86516377f0b6c360e01b81528581018290527f00000000000000000000000000000000000000000000000000000000000000006001600160a01b031696906080816024818b5afa8015610e595790610c0291879188916106b557506102fc90611358565b82811015610e535791925b818552602094600286528881208482528652888120858252865288812097610c3a60ff898b01541661141f565b6003890197338352888852838b84205410610e1a578315610ddf57610c608a5485611461565b60028b019a610c718c54809361148a565b9b610c8560018301936105c285548a611461565b9b8d608435111580610dd3575b610c9b9061150e565b3387528b528d8620610cae88825461155a565b9055610cbb87825461155a565b9055610cc88c825461155a565b9055610cd58a825461155a565b9055813b15610162578a51637921219560e11b80825290848180610cfe8f8c33308a86016114aa565b038183885af18015610dc957610db6575b50823b156104cf5789928492838a938f610d3890519788968795869485523390309086016114aa565b03925af18015610dac57610d98575b50508751338152602081018890526040810187905260608101919091527f608ca788400b4c78a8704bf0a30f39c120d87d4462232f8fab6b57ba265c195590608090a4600180558351928352820152f35b610da282916111e5565b6101bc5780610d47565b8a513d84823e3d90fd5b610dc2909491946111e5565b928c610d0f565b8d513d87823e3d90fd5b5060a4358d1015610c92565b8a5162461bcd60e51b81529081018890526015602482015274125b9d985b1a59081cda185c995cc8185b5bdd5b9d605a1b6044820152606490fd5b8a5162461bcd60e51b81529081018890526013602482015272496e73756666696369656e742073686172657360681b6044820152606490fd5b92610c0d565b89513d88823e3d90fd5b505034610203578160031936011261020357905490516001600160a01b039091168152602090f35b83346101bc57806003193601126101bc57610ea46112ef565b80546001600160a01b03198116825581906001600160a01b03167f8be0079c531659141344cd1fd0a4f28419497f9722a3daafe3b4186f6b6457e08280a380f35b503461016257608036600319011261016257602092610f42919060643560443581811015610f565780915b60243584526002885286842083855288528684209084528752918590209103610f495760018154910154915b356115ac565b9051908152f35b6001810154905491610f3c565b80610f10565b5034610162576080366003190112610162576064356001600160a01b03811691906044359060243590849003610fd45791849391869360209750818110600014610fce5790915b3584526002875284842090845286528383209083528552600383832001908252845220549051908152f35b91610fa3565b8580fd5b8284346101bc57610fe83661119a565b918282101561103b578192905b8452600260205284842083855260205284842090845260205283832092501460001461102f57600181549101545b82519182526020820152f35b60018101549054611023565b8190610ff5565b50346101625760203660031901126101625780359161105f6112ef565b80516377f0b6c360e01b81528281018490526080816024817f00000000000000000000000000000000000000000000000000000000000000006001600160a01b03165afa90811561113c57859161111a575b50156110e257838080857f64f0ac923bf29f3a9f3eab6024cc96d85377f66446835375b9e529faaf33830b8280a480f35b906020606492519162461bcd60e51b8352820152601260248201527115995c9cd9481b9bdd081c995cdbdb1d995960721b6044820152fd5b611132915060803d81116106e7576106d3818361120f565b50915050386110b1565b82513d87823e3d90fd5b92505034610162576020366003190112610162573563ffffffff60e01b81168091036101625760209250630271189760e51b8114908115611189575b5015158152f35b6301ffc9a760e01b14905038611182565b60609060031901126111b457600435906024359060443590565b600080fd5b600435906001600160a01b03821682036111b457565b602435906001600160a01b03821682036111b457565b67ffffffffffffffff81116111f957604052565b634e487b7160e01b600052604160045260246000fd5b90601f8019910116810190811067ffffffffffffffff8211176111f957604052565b9080601f830112156111b45781359067ffffffffffffffff82116111f9578160051b604051936020936112668584018761120f565b855283808601928201019283116111b4578301905b828210611289575050505090565b8135815290830190830161127b565b81601f820112156111b45780359067ffffffffffffffff82116111f957604051926112cd601f8401601f19166020018561120f565b828452602083830101116111b457816000926020809301838601378301015290565b6000546001600160a01b0316330361130357565b60405163118cdaa760e01b8152336004820152602490fd5b519081151582036111b457565b91908260809103126111b457815191602081015191611355606061134e6040850161131b565b930161131b565b90565b1561135f57565b60405162461bcd60e51b815260206004820152601460248201527315995c9cd948191bd95cc81b9bdd08195e1a5cdd60621b6044820152606490fd5b156113a257565b60405162461bcd60e51b815260206004820152601660248201527515995c9cd948185b1c9958591e481c995cdbdb1d995960521b6044820152606490fd5b156113e757565b60405162461bcd60e51b815260206004820152601060248201526f4964656e746963616c20746f6b656e7360801b6044820152606490fd5b1561142657565b60405162461bcd60e51b8152602060048201526013602482015272141bdbdb08191bd95cc81b9bdd08195e1a5cdd606a1b6044820152606490fd5b8181029291811591840414171561147457565b634e487b7160e01b600052601160045260246000fd5b8115611494570490565b634e487b7160e01b600052601260045260246000fd5b929060c0949260018060a01b0380921685521660208401526040830152606082015260a06080820152600060a08201520190565b9190820180921161147457565b6002600154146114fc576002600155565b604051633ee5aeb560e01b8152600490fd5b1561151557565b60405162461bcd60e51b815260206004820152601a60248201527f496e73756666696369656e74206f757470757420616d6f756e740000000000006044820152606490fd5b9190820391821161147457565b1561156e57565b60405162461bcd60e51b8152602060048201526016602482015275496e73756666696369656e74206c697175696469747960501b6044820152606490fd5b9190821561160d57801591821580611604575b6115c890611567565b6103e580850294850403611474576115e09084611461565b916103e880830292830414171561147457611355926115fe916114de565b9061148a565b508015156115bf565b60405162461bcd60e51b815260206004820152601960248201527f496e73756666696369656e7420696e70757420616d6f756e74000000000000006044820152606490fdfea2646970667358221220c05f5601d8bc217aec145c9928efc9e2fd8d7038ffb4feee0af173f0f7f4bb7e64736f6c63430008140033","opcodes":"PUSH1 0xA0 CALLVALUE PUSH2 0xEF JUMPI PUSH1 0x1F PUSH2 0x1793 CODESIZE DUP2 SWAP1 SUB SWAP2 DUP3 ADD PUSH1 0x1F NOT AND DUP4 ADD SWAP2 PUSH1 0x1 PUSH1 0x1 PUSH1 0x40 SHL SUB DUP4 GT DUP5 DUP5 LT OR PUSH2 0xF4 JUMPI DUP1 DUP5 SWAP3 PUSH1 0x20 SWAP5 PUSH1 0x40 MSTORE DUP4 CODECOPY DUP2 ADD SUB SLT PUSH2 0xEF JUMPI MLOAD PUSH1 0x1 PUSH1 0x1 PUSH1 0xA0 SHL SUB SWAP1 DUP2 DUP2 AND SWAP1 DUP2 SWAP1 SUB PUSH2 0xEF JUMPI CALLER ISZERO PUSH2 0xD6 JUMPI PUSH1 0x0 SLOAD CALLER PUSH1 0x1 DUP1 PUSH1 0xA0 SHL SUB NOT DUP3 AND OR PUSH1 0x0 SSTORE PUSH1 0x40 MLOAD SWAP3 CALLER SWAP2 AND PUSH32 0x8BE0079C531659141344CD1FD0A4F28419497F9722A3DAAFE3B4186F6B6457E0 PUSH1 0x0 DUP1 LOG3 PUSH1 0x1 DUP1 SSTORE PUSH1 0x80 MSTORE PUSH2 0x1688 SWAP1 DUP2 PUSH2 0x10B DUP3 CODECOPY PUSH1 0x80 MLOAD DUP2 DUP2 DUP2 PUSH2 0x1D4 ADD MSTORE DUP2 DUP2 PUSH2 0x2AC ADD MSTORE DUP2 DUP2 PUSH2 0x7AC ADD MSTORE DUP2 DUP2 PUSH2 0x8FF ADD MSTORE DUP2 DUP2 PUSH2 0xBB2 ADD MSTORE PUSH2 0x1079 ADD MSTORE RETURN JUMPDEST PUSH1 0x40 MLOAD PUSH4 0x1E4FBDF7 PUSH1 0xE0 SHL DUP2 MSTORE PUSH1 0x0 PUSH1 0x4 DUP3 ADD MSTORE PUSH1 0x24 SWAP1 REVERT JUMPDEST PUSH1 0x0 DUP1 REVERT JUMPDEST PUSH4 0x4E487B71 PUSH1 0xE0 SHL PUSH1 0x0 MSTORE PUSH1 0x41 PUSH1 0x4 MSTORE PUSH1 0x24 PUSH1 0x0 REVERT INVALID PUSH1 0x80 PUSH1 0x40 DUP2 DUP2 MSTORE PUSH1 0x4 DUP1 CALLDATASIZE LT ISZERO PUSH2 0x15 JUMPI PUSH1 0x0 DUP1 REVERT JUMPDEST PUSH1 0x0 SWAP3 DUP4 CALLDATALOAD PUSH1 0xE0 SHR SWAP1 DUP2 PUSH4 0x1FFC9A7 EQ PUSH2 0x1146 JUMPI POP DUP1 PUSH4 0xA27A0FB EQ PUSH2 0x1042 JUMPI DUP1 PUSH4 0xA335D5E EQ PUSH2 0xFD8 JUMPI DUP1 PUSH4 0x1A1ADEC7 EQ PUSH2 0xF5C JUMPI DUP1 PUSH4 0x3763A833 EQ PUSH2 0xEE5 JUMPI DUP1 PUSH4 0x715018A6 EQ PUSH2 0xE8B JUMPI DUP1 PUSH4 0x8DA5CB5B EQ PUSH2 0xE63 JUMPI DUP1 PUSH4 0x91D39C3F EQ PUSH2 0xB76 JUMPI DUP1 PUSH4 0x9E3FDD4B EQ PUSH2 0x8C3 JUMPI DUP1 PUSH4 0xB3A2199D EQ PUSH2 0x77F JUMPI DUP1 PUSH4 0xBC197C81 EQ PUSH2 0x6F8 JUMPI DUP1 PUSH4 0xBEF39DA5 EQ PUSH2 0x260 JUMPI DUP1 PUSH4 0xC2E4A52F EQ PUSH2 0x207 JUMPI DUP1 PUSH4 0xEA3B3C45 EQ PUSH2 0x1BF JUMPI DUP1 PUSH4 0xF23A6E61 EQ PUSH2 0x166 JUMPI PUSH4 0xF2FDE38B EQ PUSH2 0xD3 JUMPI PUSH1 0x0 DUP1 REVERT JUMPDEST CALLVALUE PUSH2 0x162 JUMPI PUSH1 0x20 CALLDATASIZE PUSH1 0x3 NOT ADD SLT PUSH2 0x162 JUMPI PUSH2 0xEC PUSH2 0x11B9 JUMP JUMPDEST SWAP1 PUSH2 0xF5 PUSH2 0x12EF JUMP JUMPDEST PUSH1 0x1 PUSH1 0x1 PUSH1 0xA0 SHL SUB SWAP2 DUP3 AND SWAP3 DUP4 ISZERO PUSH2 0x14C JUMPI POP POP PUSH1 0x0 SLOAD DUP3 PUSH12 0xFFFFFFFFFFFFFFFFFFFFFFFF PUSH1 0xA0 SHL DUP3 AND OR PUSH1 0x0 SSTORE AND PUSH32 0x8BE0079C531659141344CD1FD0A4F28419497F9722A3DAAFE3B4186F6B6457E0 PUSH1 0x0 DUP1 LOG3 DUP1 RETURN JUMPDEST MLOAD PUSH4 0x1E4FBDF7 PUSH1 0xE0 SHL DUP2 MSTORE SWAP1 DUP2 ADD DUP5 SWAP1 MSTORE PUSH1 0x24 SWAP1 REVERT JUMPDEST DUP3 DUP1 REVERT JUMPDEST POP SWAP2 CALLVALUE PUSH2 0x1BC JUMPI PUSH1 0xA0 CALLDATASIZE PUSH1 0x3 NOT ADD SLT PUSH2 0x1BC JUMPI PUSH2 0x181 PUSH2 0x11B9 JUMP JUMPDEST POP PUSH2 0x18A PUSH2 0x11CF JUMP JUMPDEST POP PUSH1 0x84 CALLDATALOAD SWAP1 PUSH8 0xFFFFFFFFFFFFFFFF DUP3 GT PUSH2 0x1BC JUMPI POP PUSH1 0x20 SWAP3 PUSH2 0x1AE SWAP2 CALLDATASIZE SWAP2 ADD PUSH2 0x1298 JUMP JUMPDEST POP MLOAD PUSH4 0xF23A6E61 PUSH1 0xE0 SHL DUP2 MSTORE RETURN JUMPDEST DUP1 REVERT JUMPDEST POP POP CALLVALUE PUSH2 0x203 JUMPI DUP2 PUSH1 0x3 NOT CALLDATASIZE ADD SLT PUSH2 0x203 JUMPI MLOAD PUSH32 0x0 PUSH1 0x1 PUSH1 0x1 PUSH1 0xA0 SHL SUB AND DUP2 MSTORE PUSH1 0x20 SWAP1 RETURN JUMPDEST POP DUP1 REVERT JUMPDEST POP CALLVALUE PUSH2 0x162 JUMPI DUP2 PUSH1 0x80 SWAP4 PUSH2 0x21A CALLDATASIZE PUSH2 0x119A JUMP JUMPDEST SWAP2 DUP4 MSTORE PUSH1 0x2 PUSH1 0x20 MSTORE DUP4 DUP4 KECCAK256 SWAP1 DUP4 MSTORE PUSH1 0x20 MSTORE DUP3 DUP3 KECCAK256 SWAP1 DUP3 MSTORE PUSH1 0x20 MSTORE KECCAK256 DUP1 SLOAD SWAP3 PUSH1 0xFF PUSH1 0x1 DUP4 ADD SLOAD SWAP4 PUSH1 0x2 DUP5 ADD SLOAD SWAP4 ADD SLOAD AND SWAP3 DUP2 MLOAD SWAP5 DUP6 MSTORE PUSH1 0x20 DUP6 ADD MSTORE DUP4 ADD MSTORE ISZERO ISZERO PUSH1 0x60 DUP3 ADD MSTORE RETURN JUMPDEST POP SWAP2 SWAP1 CALLVALUE PUSH2 0x203 JUMPI PUSH1 0xE0 CALLDATASIZE PUSH1 0x3 NOT ADD SLT PUSH2 0x203 JUMPI DUP3 CALLDATALOAD SWAP1 PUSH1 0x24 SWAP2 DUP3 CALLDATALOAD SWAP4 PUSH1 0x44 CALLDATALOAD PUSH1 0x64 CALLDATALOAD SWAP1 PUSH1 0x84 CALLDATALOAD SWAP4 PUSH1 0xA4 CALLDATALOAD SWAP4 PUSH1 0xC4 CALLDATALOAD SWAP1 PUSH2 0x298 PUSH2 0x14EB JUMP JUMPDEST DUP8 MLOAD PUSH4 0x77F0B6C3 PUSH1 0xE0 SHL DUP2 MSTORE DUP12 DUP2 ADD DUP5 SWAP1 MSTORE PUSH32 0x0 PUSH1 0x1 PUSH1 0x1 PUSH1 0xA0 SHL SUB AND SWAP7 SWAP1 PUSH1 0x80 DUP2 DUP13 DUP2 DUP12 GAS STATICCALL DUP1 ISZERO PUSH2 0x6EE JUMPI SWAP1 PUSH2 0x302 SWAP2 DUP5 SWAP2 DUP6 SWAP2 PUSH2 0x6B5 JUMPI JUMPDEST POP PUSH2 0x2FC SWAP1 PUSH2 0x1358 JUMP JUMPDEST ISZERO PUSH2 0x139B JUMP JUMPDEST DUP5 DUP12 LT SWAP11 DUP12 ISZERO PUSH2 0x6AF JUMPI SWAP5 SWAP6 JUMPDEST DUP12 ISZERO PUSH2 0x6A9 JUMPI SWAP8 SWAP11 JUMPDEST ISZERO PUSH2 0x6A3 JUMPI SWAP2 SWAP6 JUMPDEST DUP4 DUP3 MSTORE DUP12 PUSH1 0x20 SWAP8 PUSH1 0x2 DUP10 MSTORE DUP11 DUP5 KECCAK256 DUP8 DUP6 MSTORE DUP10 MSTORE DUP11 DUP5 KECCAK256 DUP9 DUP6 MSTORE DUP10 MSTORE DUP11 DUP5 KECCAK256 SWAP14 DUP15 ADD SLOAD PUSH1 0xFF AND PUSH2 0x34E SWAP1 PUSH2 0x141F JUMP JUMPDEST DUP14 PUSH1 0x2 DUP2 ADD SWAP6 DUP7 SLOAD SWAP3 DUP4 ISZERO PUSH1 0x0 EQ PUSH2 0x574 JUMPI POP POP POP POP PUSH2 0x370 DUP10 SWAP13 DUP1 SWAP11 PUSH2 0x1461 JUMP JUMPDEST SWAP11 DUP4 PUSH1 0x3 DUP14 GT ISZERO PUSH2 0x565 JUMPI POP DUP12 PUSH1 0x1 SWAP1 DUP1 DUP3 SHR DUP3 DUP2 ADD DUP1 SWAP2 GT PUSH2 0x553 JUMPI SWAP1 DUP15 JUMPDEST DUP3 LT PUSH2 0x533 JUMPI POP POP POP JUMPDEST DUP12 ISZERO PUSH2 0x4F1 JUMPI POP JUMPDEST DUP2 EXTCODESIZE ISZERO PUSH2 0x162 JUMPI DUP12 DUP11 MLOAD DUP5 DUP2 DUP1 PUSH2 0x3C9 PUSH4 0x79212195 PUSH1 0xE1 SHL SWAP6 DUP7 DUP4 MSTORE DUP13 ADDRESS CALLER DUP11 DUP7 ADD PUSH2 0x14AA JUMP JUMPDEST SUB DUP2 DUP4 DUP9 GAS CALL DUP1 ISZERO PUSH2 0x4E7 JUMPI SWAP1 DUP6 SWAP2 PUSH2 0x4D3 JUMPI JUMPDEST POP POP DUP3 EXTCODESIZE ISZERO PUSH2 0x4CF JUMPI DUP10 SWAP3 DUP5 SWAP3 DUP4 DUP11 SWAP4 PUSH2 0x406 DUP16 MLOAD SWAP8 DUP9 SWAP7 DUP8 SWAP6 DUP7 SWAP5 DUP6 MSTORE ADDRESS SWAP1 CALLER SWAP1 DUP7 ADD PUSH2 0x14AA JUMP JUMPDEST SUB SWAP3 GAS CALL DUP1 ISZERO PUSH2 0x4C5 JUMPI PUSH2 0x4B1 JUMPI JUMPDEST POP POP DUP10 PUSH1 0x3 SWAP2 PUSH2 0x428 DUP12 PUSH1 0x60 SWAP14 SLOAD PUSH2 0x14DE JUMP JUMPDEST DUP3 SSTORE PUSH1 0x1 DUP3 ADD PUSH2 0x439 DUP10 DUP3 SLOAD PUSH2 0x14DE JUMP JUMPDEST SWAP1 SSTORE PUSH2 0x446 DUP11 DUP3 SLOAD PUSH2 0x14DE JUMP JUMPDEST SWAP1 SSTORE CALLER PUSH1 0x0 MSTORE ADD DUP5 MSTORE DUP6 PUSH1 0x0 KECCAK256 PUSH2 0x45E DUP9 DUP3 SLOAD PUSH2 0x14DE JUMP JUMPDEST SWAP1 SSTORE DUP6 MLOAD CALLER DUP2 MSTORE PUSH1 0x20 DUP2 ADD DUP10 SWAP1 MSTORE PUSH1 0x40 DUP2 ADD DUP7 SWAP1 MSTORE PUSH1 0x60 DUP2 ADD DUP9 SWAP1 MSTORE PUSH32 0x7E2C5DAE32FF81CF5CB23229FC0BA0850E39B3BE86F176B93014A388D25E0007 SWAP1 PUSH1 0x80 SWAP1 LOG4 PUSH1 0x1 DUP1 SSTORE DUP3 MLOAD SWAP5 DUP6 MSTORE DUP5 ADD MSTORE DUP3 ADD MSTORE RETURN JUMPDEST PUSH2 0x4BB DUP3 SWAP2 PUSH2 0x11E5 JUMP JUMPDEST PUSH2 0x1BC JUMPI DUP1 PUSH2 0x415 JUMP JUMPDEST DUP10 MLOAD RETURNDATASIZE DUP5 DUP3 RETURNDATACOPY RETURNDATASIZE SWAP1 REVERT JUMPDEST DUP4 DUP1 REVERT JUMPDEST PUSH2 0x4DC SWAP1 PUSH2 0x11E5 JUMP JUMPDEST PUSH2 0x4CF JUMPI DUP4 CODESIZE PUSH2 0x3DD JUMP JUMPDEST DUP13 MLOAD RETURNDATASIZE DUP8 DUP3 RETURNDATACOPY RETURNDATASIZE SWAP1 REVERT JUMPDEST DUP11 MLOAD PUSH3 0x461BCD PUSH1 0xE5 SHL DUP2 MSTORE SWAP2 DUP3 ADD DUP10 SWAP1 MSTORE PUSH1 0x1D SWAP1 DUP3 ADD MSTORE PUSH32 0x496E73756666696369656E74206C6971756964697479206D696E746564000000 PUSH1 0x44 DUP3 ADD MSTORE PUSH1 0x64 SWAP1 REVERT JUMPDEST PUSH2 0x54B SWAP15 POP DUP2 SWAP15 DUP16 SWAP3 PUSH2 0x546 DUP2 DUP5 PUSH2 0x148A JUMP JUMPDEST PUSH2 0x14DE JUMP JUMPDEST DUP4 SHR SWAP2 PUSH2 0x390 JUMP JUMPDEST PUSH4 0x4E487B71 PUSH1 0xE0 SHL DUP8 MSTORE PUSH1 0x11 DUP6 MSTORE DUP4 DUP8 REVERT JUMPDEST SWAP12 ISZERO PUSH2 0x39A JUMPI PUSH1 0x1 SWAP12 POP PUSH2 0x39A JUMP JUMPDEST DUP3 SWAP5 SWAP15 SWAP2 SWAP4 SWAP16 PUSH1 0x1 DUP2 SWAP15 SWAP5 ADD SLOAD SWAP5 PUSH2 0x598 PUSH2 0x58F DUP8 DUP8 PUSH2 0x1461 JUMP JUMPDEST SWAP8 SLOAD DUP1 SWAP9 PUSH2 0x148A JUMP JUMPDEST SWAP15 DUP16 GT PUSH2 0x61F JUMPI POP POP DUP13 LT PUSH2 0x5E5 JUMPI POP SWAP1 DUP14 SWAP3 SWAP2 SWAP14 DUP15 PUSH2 0x5CE SWAP4 PUSH2 0x5C2 PUSH2 0x5C2 SWAP4 PUSH2 0x5C7 SWAP4 PUSH2 0x1461 JUMP JUMPDEST PUSH2 0x148A JUMP JUMPDEST SWAP4 DUP13 PUSH2 0x1461 JUMP JUMPDEST DUP1 DUP3 LT ISZERO PUSH2 0x5DE JUMPI POP JUMPDEST SWAP10 PUSH2 0x3A2 JUMP JUMPDEST SWAP1 POP PUSH2 0x5D8 JUMP JUMPDEST DUP14 PUSH1 0x15 PUSH1 0x64 SWAP3 DUP16 DUP15 SWAP1 MLOAD SWAP4 PUSH3 0x461BCD PUSH1 0xE5 SHL DUP6 MSTORE DUP5 ADD MSTORE DUP3 ADD MSTORE PUSH21 0x125B9CDD59999A58DA595B9D081088185B5BDD5B9D PUSH1 0x5A SHL PUSH1 0x44 DUP3 ADD MSTORE REVERT JUMPDEST SWAP2 POP SWAP13 POP PUSH2 0x632 DUP5 PUSH2 0x5C2 DUP16 DUP9 SWAP1 PUSH2 0x1461 JUMP JUMPDEST SWAP3 DUP4 GT ISZERO SWAP1 DUP2 PUSH2 0x698 JUMPI JUMPDEST POP ISZERO PUSH2 0x65E JUMPI POP SWAP1 DUP14 SWAP3 SWAP2 SWAP14 DUP15 PUSH2 0x5CE SWAP4 PUSH2 0x5C2 PUSH2 0x5C2 SWAP4 PUSH2 0x5C7 SWAP4 PUSH2 0x1461 JUMP JUMPDEST DUP14 PUSH1 0x15 PUSH1 0x64 SWAP3 DUP16 DUP15 SWAP1 MLOAD SWAP4 PUSH3 0x461BCD PUSH1 0xE5 SHL DUP6 MSTORE DUP5 ADD MSTORE DUP3 ADD MSTORE PUSH21 0x125B9CDD59999A58DA595B9D081048185B5BDD5B9D PUSH1 0x5A SHL PUSH1 0x44 DUP3 ADD MSTORE REVERT JUMPDEST SWAP1 POP DUP3 LT ISZERO CODESIZE PUSH2 0x63D JUMP JUMPDEST SWAP6 PUSH2 0x320 JUMP JUMPDEST SWAP11 PUSH2 0x318 JUMP JUMPDEST SWAP6 PUSH2 0x30F JUMP JUMPDEST PUSH2 0x2FC SWAP3 POP PUSH2 0x6DB SWAP2 POP PUSH1 0x80 RETURNDATASIZE DUP2 GT PUSH2 0x6E7 JUMPI JUMPDEST PUSH2 0x6D3 DUP2 DUP4 PUSH2 0x120F JUMP JUMPDEST DUP2 ADD SWAP1 PUSH2 0x1328 JUMP JUMPDEST SWAP4 SWAP3 POP SWAP1 POP SWAP2 SWAP1 PUSH2 0x2F2 JUMP JUMPDEST POP RETURNDATASIZE PUSH2 0x6C9 JUMP JUMPDEST DUP11 MLOAD RETURNDATASIZE DUP6 DUP3 RETURNDATACOPY RETURNDATASIZE SWAP1 REVERT JUMPDEST POP SWAP2 CALLVALUE PUSH2 0x1BC JUMPI PUSH1 0xA0 CALLDATASIZE PUSH1 0x3 NOT ADD SLT PUSH2 0x1BC JUMPI PUSH2 0x713 PUSH2 0x11B9 JUMP JUMPDEST POP PUSH2 0x71C PUSH2 0x11CF JUMP JUMPDEST POP PUSH8 0xFFFFFFFFFFFFFFFF SWAP1 PUSH1 0x44 CALLDATALOAD DUP3 DUP2 GT PUSH2 0x203 JUMPI PUSH2 0x73E SWAP1 CALLDATASIZE SWAP1 DUP7 ADD PUSH2 0x1231 JUMP JUMPDEST POP PUSH1 0x64 CALLDATALOAD DUP3 DUP2 GT PUSH2 0x203 JUMPI PUSH2 0x756 SWAP1 CALLDATASIZE SWAP1 DUP7 ADD PUSH2 0x1231 JUMP JUMPDEST POP PUSH1 0x84 CALLDATALOAD SWAP2 DUP3 GT PUSH2 0x1BC JUMPI POP PUSH1 0x20 SWAP3 PUSH2 0x771 SWAP2 CALLDATASIZE SWAP2 ADD PUSH2 0x1298 JUMP JUMPDEST POP MLOAD PUSH4 0xBC197C81 PUSH1 0xE0 SHL DUP2 MSTORE RETURN JUMPDEST POP CALLVALUE PUSH2 0x162 JUMPI PUSH2 0x78E CALLDATASIZE PUSH2 0x119A JUMP JUMPDEST DUP5 MLOAD PUSH4 0x77F0B6C3 PUSH1 0xE0 SHL DUP2 MSTORE DUP1 DUP6 ADD DUP5 SWAP1 MSTORE SWAP1 SWAP4 SWAP2 SWAP1 PUSH1 0x80 DUP2 PUSH1 0x24 DUP2 PUSH32 0x0 PUSH1 0x1 PUSH1 0x1 PUSH1 0xA0 SHL SUB AND GAS STATICCALL SWAP1 DUP2 ISZERO PUSH2 0x8B9 JUMPI PUSH2 0x7F3 SWAP2 DUP9 SWAP2 DUP10 SWAP2 PUSH2 0x6B5 JUMPI POP PUSH2 0x2FC SWAP1 PUSH2 0x1358 JUMP JUMPDEST PUSH2 0x7FF DUP5 DUP3 EQ ISZERO PUSH2 0x13E0 JUMP JUMPDEST DUP4 DUP2 LT ISZERO PUSH2 0x8B3 JUMPI SWAP3 SWAP4 JUMPDEST DUP3 DUP7 MSTORE PUSH1 0x20 PUSH1 0x2 DUP2 MSTORE DUP2 DUP8 KECCAK256 DUP6 DUP9 MSTORE DUP2 MSTORE DUP2 DUP8 KECCAK256 DUP7 DUP9 MSTORE DUP2 MSTORE PUSH1 0xFF DUP4 DUP4 DUP10 KECCAK256 ADD SLOAD AND PUSH2 0x87C JUMPI DUP4 DUP8 MSTORE PUSH1 0x2 DUP2 MSTORE DUP2 DUP8 KECCAK256 DUP6 DUP9 MSTORE DUP2 MSTORE DUP2 DUP8 KECCAK256 DUP7 DUP9 MSTORE SWAP1 MSTORE DUP6 KECCAK256 ADD DUP1 SLOAD PUSH1 0xFF NOT AND PUSH1 0x1 OR SWAP1 SSTORE PUSH32 0x704E80777B19AE920D50255D1EBD98770035D35B444F893ABBA5B885B232F547 DUP5 DUP1 LOG4 DUP1 RETURN JUMPDEST SWAP1 MLOAD PUSH3 0x461BCD PUSH1 0xE5 SHL DUP2 MSTORE SWAP2 DUP3 ADD MSTORE PUSH1 0x13 PUSH1 0x24 DUP3 ADD MSTORE PUSH19 0x506F6F6C20616C726561647920657869737473 PUSH1 0x68 SHL PUSH1 0x44 DUP3 ADD MSTORE PUSH1 0x64 SWAP1 REVERT JUMPDEST SWAP4 PUSH2 0x80A JUMP JUMPDEST DUP7 MLOAD RETURNDATASIZE DUP10 DUP3 RETURNDATACOPY RETURNDATASIZE SWAP1 REVERT JUMPDEST POP SWAP1 CALLVALUE PUSH2 0x162 JUMPI PUSH1 0xA0 CALLDATASIZE PUSH1 0x3 NOT ADD SLT PUSH2 0x162 JUMPI DUP2 CALLDATALOAD PUSH1 0x24 CALLDATALOAD PUSH1 0x44 CALLDATALOAD SWAP2 PUSH1 0x64 CALLDATALOAD SWAP6 PUSH2 0x8EB PUSH2 0x14EB JUMP JUMPDEST DUP5 MLOAD PUSH4 0x77F0B6C3 PUSH1 0xE0 SHL DUP2 MSTORE DUP7 DUP2 ADD DUP4 SWAP1 MSTORE PUSH32 0x0 PUSH1 0x1 PUSH1 0x1 PUSH1 0xA0 SHL SUB AND SWAP2 SWAP1 PUSH1 0x80 DUP2 PUSH1 0x24 DUP2 DUP7 GAS STATICCALL DUP1 ISZERO PUSH2 0xB6C JUMPI SWAP1 PUSH2 0x94F SWAP2 DUP4 SWAP2 DUP5 SWAP2 PUSH2 0x6B5 JUMPI POP PUSH2 0x2FC SWAP1 PUSH2 0x1358 JUMP JUMPDEST PUSH2 0x95B DUP6 DUP6 EQ ISZERO PUSH2 0x13E0 JUMP JUMPDEST DUP8 ISZERO PUSH2 0xB32 JUMPI DUP5 DUP5 LT ISZERO PUSH2 0xB2A JUMPI DUP4 SWAP1 DUP6 JUMPDEST DUP5 DUP3 MSTORE PUSH1 0x2 PUSH1 0x20 MSTORE DUP8 DUP3 KECCAK256 DUP4 DUP4 MSTORE PUSH1 0x20 MSTORE DUP8 DUP3 KECCAK256 SWAP1 DUP3 MSTORE PUSH1 0x20 MSTORE DUP7 DUP2 KECCAK256 SWAP3 PUSH2 0x99A PUSH1 0xFF DUP11 DUP7 ADD SLOAD AND PUSH2 0x141F JUMP JUMPDEST PUSH2 0x9C8 DUP5 SLOAD SWAP4 DUP5 ISZERO ISZERO DUP1 PUSH2 0xB1D JUMPI JUMPDEST PUSH2 0x9B2 SWAP1 PUSH2 0x1567 JUMP JUMPDEST DUP8 EQ SWAP4 DUP5 ISZERO PUSH2 0xB13 JUMPI PUSH1 0x1 DUP7 ADD SLOAD SWAP1 JUMPDEST DUP13 PUSH2 0x15AC JUMP JUMPDEST SWAP9 PUSH2 0x9D7 PUSH1 0x84 CALLDATALOAD DUP12 LT ISZERO PUSH2 0x150E JUMP JUMPDEST DUP2 EXTCODESIZE ISZERO PUSH2 0x162 JUMPI DUP11 DUP10 MLOAD DUP5 DUP2 DUP1 PUSH2 0x9FE PUSH4 0x79212195 PUSH1 0xE1 SHL SWAP6 DUP7 DUP4 MSTORE DUP14 ADDRESS CALLER DUP11 DUP7 ADD PUSH2 0x14AA JUMP JUMPDEST SUB DUP2 DUP4 DUP9 GAS CALL DUP1 ISZERO PUSH2 0xB09 JUMPI SWAP1 DUP6 SWAP2 PUSH2 0xAF5 JUMPI JUMPDEST POP POP DUP3 EXTCODESIZE ISZERO PUSH2 0x4CF JUMPI DUP11 SWAP3 DUP5 SWAP3 DUP4 DUP12 SWAP4 PUSH2 0xA3B DUP15 MLOAD SWAP8 DUP9 SWAP7 DUP8 SWAP6 DUP7 SWAP5 DUP6 MSTORE CALLER SWAP1 ADDRESS SWAP1 DUP7 ADD PUSH2 0x14AA JUMP JUMPDEST SUB SWAP3 GAS CALL DUP1 ISZERO PUSH2 0xAEB JUMPI PUSH2 0xAD7 JUMPI JUMPDEST POP POP PUSH1 0x20 SWAP8 PUSH32 0x9D966BE334D2C55096C0F8E38511B57FF318ADA4143C9F66E75BDEBBE13159B7 SWAP3 PUSH1 0x60 SWAP3 PUSH1 0x0 EQ PUSH2 0xAB4 JUMPI DUP1 PUSH2 0xA89 DUP4 PUSH1 0x1 SWAP4 SLOAD PUSH2 0x14DE JUMP JUMPDEST DUP2 SSTORE ADD PUSH2 0xA97 DUP10 DUP3 SLOAD PUSH2 0x155A JUMP JUMPDEST SWAP1 SSTORE JUMPDEST DUP7 MLOAD SWAP1 CALLER DUP3 MSTORE DUP10 DUP3 ADD MSTORE DUP8 DUP8 DUP3 ADD MSTORE LOG4 PUSH1 0x1 DUP1 SSTORE MLOAD SWAP1 DUP2 MSTORE RETURN JUMPDEST PUSH1 0x1 DUP2 ADD PUSH2 0xAC3 DUP4 DUP3 SLOAD PUSH2 0x14DE JUMP JUMPDEST SWAP1 SSTORE PUSH2 0xAD0 DUP10 DUP3 SLOAD PUSH2 0x155A JUMP JUMPDEST SWAP1 SSTORE PUSH2 0xA9A JUMP JUMPDEST PUSH2 0xAE1 DUP3 SWAP2 PUSH2 0x11E5 JUMP JUMPDEST PUSH2 0x1BC JUMPI DUP1 PUSH2 0xA4A JUMP JUMPDEST DUP9 MLOAD RETURNDATASIZE DUP5 DUP3 RETURNDATACOPY RETURNDATASIZE SWAP1 REVERT JUMPDEST PUSH2 0xAFE SWAP1 PUSH2 0x11E5 JUMP JUMPDEST PUSH2 0x4CF JUMPI DUP4 CODESIZE PUSH2 0xA12 JUMP JUMPDEST DUP12 MLOAD RETURNDATASIZE DUP8 DUP3 RETURNDATACOPY RETURNDATASIZE SWAP1 REVERT JUMPDEST PUSH1 0x1 DUP7 ADD SLOAD PUSH2 0x9C2 JUMP JUMPDEST POP PUSH1 0x1 DUP7 ADD SLOAD ISZERO ISZERO PUSH2 0x9A9 JUMP JUMPDEST DUP5 SWAP1 DUP5 PUSH2 0x96D JUMP JUMPDEST DUP6 MLOAD PUSH3 0x461BCD PUSH1 0xE5 SHL DUP2 MSTORE PUSH1 0x20 DUP2 DUP10 ADD MSTORE PUSH1 0x14 PUSH1 0x24 DUP3 ADD MSTORE PUSH20 0x125B9D985B1A59081A5B9C1D5D08185B5BDD5B9D PUSH1 0x62 SHL PUSH1 0x44 DUP3 ADD MSTORE PUSH1 0x64 SWAP1 REVERT JUMPDEST DUP8 MLOAD RETURNDATASIZE DUP5 DUP3 RETURNDATACOPY RETURNDATASIZE SWAP1 REVERT JUMPDEST POP DUP3 SWAP1 CALLVALUE PUSH2 0x203 JUMPI PUSH1 0xC0 CALLDATASIZE PUSH1 0x3 NOT ADD SLT PUSH2 0x203 JUMPI PUSH1 0x24 CALLDATALOAD SWAP2 PUSH1 0x64 CALLDATALOAD PUSH1 0x44 CALLDATALOAD DUP4 CALLDATALOAD PUSH2 0xB9E PUSH2 0x14EB JUMP JUMPDEST DUP7 MLOAD PUSH4 0x77F0B6C3 PUSH1 0xE0 SHL DUP2 MSTORE DUP6 DUP2 ADD DUP3 SWAP1 MSTORE PUSH32 0x0 PUSH1 0x1 PUSH1 0x1 PUSH1 0xA0 SHL SUB AND SWAP7 SWAP1 PUSH1 0x80 DUP2 PUSH1 0x24 DUP2 DUP12 GAS STATICCALL DUP1 ISZERO PUSH2 0xE59 JUMPI SWAP1 PUSH2 0xC02 SWAP2 DUP8 SWAP2 DUP9 SWAP2 PUSH2 0x6B5 JUMPI POP PUSH2 0x2FC SWAP1 PUSH2 0x1358 JUMP JUMPDEST DUP3 DUP2 LT ISZERO PUSH2 0xE53 JUMPI SWAP2 SWAP3 JUMPDEST DUP2 DUP6 MSTORE PUSH1 0x20 SWAP5 PUSH1 0x2 DUP7 MSTORE DUP9 DUP2 KECCAK256 DUP5 DUP3 MSTORE DUP7 MSTORE DUP9 DUP2 KECCAK256 DUP6 DUP3 MSTORE DUP7 MSTORE DUP9 DUP2 KECCAK256 SWAP8 PUSH2 0xC3A PUSH1 0xFF DUP10 DUP12 ADD SLOAD AND PUSH2 0x141F JUMP JUMPDEST PUSH1 0x3 DUP10 ADD SWAP8 CALLER DUP4 MSTORE DUP9 DUP9 MSTORE DUP4 DUP12 DUP5 KECCAK256 SLOAD LT PUSH2 0xE1A JUMPI DUP4 ISZERO PUSH2 0xDDF JUMPI PUSH2 0xC60 DUP11 SLOAD DUP6 PUSH2 0x1461 JUMP JUMPDEST PUSH1 0x2 DUP12 ADD SWAP11 PUSH2 0xC71 DUP13 SLOAD DUP1 SWAP4 PUSH2 0x148A JUMP JUMPDEST SWAP12 PUSH2 0xC85 PUSH1 0x1 DUP4 ADD SWAP4 PUSH2 0x5C2 DUP6 SLOAD DUP11 PUSH2 0x1461 JUMP JUMPDEST SWAP12 DUP14 PUSH1 0x84 CALLDATALOAD GT ISZERO DUP1 PUSH2 0xDD3 JUMPI JUMPDEST PUSH2 0xC9B SWAP1 PUSH2 0x150E JUMP JUMPDEST CALLER DUP8 MSTORE DUP12 MSTORE DUP14 DUP7 KECCAK256 PUSH2 0xCAE DUP9 DUP3 SLOAD PUSH2 0x155A JUMP JUMPDEST SWAP1 SSTORE PUSH2 0xCBB DUP8 DUP3 SLOAD PUSH2 0x155A JUMP JUMPDEST SWAP1 SSTORE PUSH2 0xCC8 DUP13 DUP3 SLOAD PUSH2 0x155A JUMP JUMPDEST SWAP1 SSTORE PUSH2 0xCD5 DUP11 DUP3 SLOAD PUSH2 0x155A JUMP JUMPDEST SWAP1 SSTORE DUP2 EXTCODESIZE ISZERO PUSH2 0x162 JUMPI DUP11 MLOAD PUSH4 0x79212195 PUSH1 0xE1 SHL DUP1 DUP3 MSTORE SWAP1 DUP5 DUP2 DUP1 PUSH2 0xCFE DUP16 DUP13 CALLER ADDRESS DUP11 DUP7 ADD PUSH2 0x14AA JUMP JUMPDEST SUB DUP2 DUP4 DUP9 GAS CALL DUP1 ISZERO PUSH2 0xDC9 JUMPI PUSH2 0xDB6 JUMPI JUMPDEST POP DUP3 EXTCODESIZE ISZERO PUSH2 0x4CF JUMPI DUP10 SWAP3 DUP5 SWAP3 DUP4 DUP11 SWAP4 DUP16 PUSH2 0xD38 SWAP1 MLOAD SWAP8 DUP9 SWAP7 DUP8 SWAP6 DUP7 SWAP5 DUP6 MSTORE CALLER SWAP1 ADDRESS SWAP1 DUP7 ADD PUSH2 0x14AA JUMP JUMPDEST SUB SWAP3 GAS CALL DUP1 ISZERO PUSH2 0xDAC JUMPI PUSH2 0xD98 JUMPI JUMPDEST POP POP DUP8 MLOAD CALLER DUP2 MSTORE PUSH1 0x20 DUP2 ADD DUP9 SWAP1 MSTORE PUSH1 0x40 DUP2 ADD DUP8 SWAP1 MSTORE PUSH1 0x60 DUP2 ADD SWAP2 SWAP1 SWAP2 MSTORE PUSH32 0x608CA788400B4C78A8704BF0A30F39C120D87D4462232F8FAB6B57BA265C1955 SWAP1 PUSH1 0x80 SWAP1 LOG4 PUSH1 0x1 DUP1 SSTORE DUP4 MLOAD SWAP3 DUP4 MSTORE DUP3 ADD MSTORE RETURN JUMPDEST PUSH2 0xDA2 DUP3 SWAP2 PUSH2 0x11E5 JUMP JUMPDEST PUSH2 0x1BC JUMPI DUP1 PUSH2 0xD47 JUMP JUMPDEST DUP11 MLOAD RETURNDATASIZE DUP5 DUP3 RETURNDATACOPY RETURNDATASIZE SWAP1 REVERT JUMPDEST PUSH2 0xDC2 SWAP1 SWAP5 SWAP2 SWAP5 PUSH2 0x11E5 JUMP JUMPDEST SWAP3 DUP13 PUSH2 0xD0F JUMP JUMPDEST DUP14 MLOAD RETURNDATASIZE DUP8 DUP3 RETURNDATACOPY RETURNDATASIZE SWAP1 REVERT JUMPDEST POP PUSH1 0xA4 CALLDATALOAD DUP14 LT ISZERO PUSH2 0xC92 JUMP JUMPDEST DUP11 MLOAD PUSH3 0x461BCD PUSH1 0xE5 SHL DUP2 MSTORE SWAP1 DUP2 ADD DUP9 SWAP1 MSTORE PUSH1 0x15 PUSH1 0x24 DUP3 ADD MSTORE PUSH21 0x125B9D985B1A59081CDA185C995CC8185B5BDD5B9D PUSH1 0x5A SHL PUSH1 0x44 DUP3 ADD MSTORE PUSH1 0x64 SWAP1 REVERT JUMPDEST DUP11 MLOAD PUSH3 0x461BCD PUSH1 0xE5 SHL DUP2 MSTORE SWAP1 DUP2 ADD DUP9 SWAP1 MSTORE PUSH1 0x13 PUSH1 0x24 DUP3 ADD MSTORE PUSH19 0x496E73756666696369656E7420736861726573 PUSH1 0x68 SHL PUSH1 0x44 DUP3 ADD MSTORE PUSH1 0x64 SWAP1 REVERT JUMPDEST SWAP3 PUSH2 0xC0D JUMP JUMPDEST DUP10 MLOAD RETURNDATASIZE DUP9 DUP3 RETURNDATACOPY RETURNDATASIZE SWAP1 REVERT JUMPDEST POP POP CALLVALUE PUSH2 0x203 JUMPI DUP2 PUSH1 0x3 NOT CALLDATASIZE ADD SLT PUSH2 0x203 JUMPI SWAP1 SLOAD SWAP1 MLOAD PUSH1 0x1 PUSH1 0x1 PUSH1 0xA0 SHL SUB SWAP1 SWAP2 AND DUP2 MSTORE PUSH1 0x20 SWAP1 RETURN JUMPDEST DUP4 CALLVALUE PUSH2 0x1BC JUMPI DUP1 PUSH1 0x3 NOT CALLDATASIZE ADD SLT PUSH2 0x1BC JUMPI PUSH2 0xEA4 PUSH2 0x12EF JUMP JUMPDEST DUP1 SLOAD PUSH1 0x1 PUSH1 0x1 PUSH1 0xA0 SHL SUB NOT DUP2 AND DUP3 SSTORE DUP2 SWAP1 PUSH1 0x1 PUSH1 0x1 PUSH1 0xA0 SHL SUB AND PUSH32 0x8BE0079C531659141344CD1FD0A4F28419497F9722A3DAAFE3B4186F6B6457E0 DUP3 DUP1 LOG3 DUP1 RETURN JUMPDEST POP CALLVALUE PUSH2 0x162 JUMPI PUSH1 0x80 CALLDATASIZE PUSH1 0x3 NOT ADD SLT PUSH2 0x162 JUMPI PUSH1 0x20 SWAP3 PUSH2 0xF42 SWAP2 SWAP1 PUSH1 0x64 CALLDATALOAD PUSH1 0x44 CALLDATALOAD DUP2 DUP2 LT ISZERO PUSH2 0xF56 JUMPI DUP1 SWAP2 JUMPDEST PUSH1 0x24 CALLDATALOAD DUP5 MSTORE PUSH1 0x2 DUP9 MSTORE DUP7 DUP5 KECCAK256 DUP4 DUP6 MSTORE DUP9 MSTORE DUP7 DUP5 KECCAK256 SWAP1 DUP5 MSTORE DUP8 MSTORE SWAP2 DUP6 SWAP1 KECCAK256 SWAP2 SUB PUSH2 0xF49 JUMPI PUSH1 0x1 DUP2 SLOAD SWAP2 ADD SLOAD SWAP2 JUMPDEST CALLDATALOAD PUSH2 0x15AC JUMP JUMPDEST SWAP1 MLOAD SWAP1 DUP2 MSTORE RETURN JUMPDEST PUSH1 0x1 DUP2 ADD SLOAD SWAP1 SLOAD SWAP2 PUSH2 0xF3C JUMP JUMPDEST DUP1 PUSH2 0xF10 JUMP JUMPDEST POP CALLVALUE PUSH2 0x162 JUMPI PUSH1 0x80 CALLDATASIZE PUSH1 0x3 NOT ADD SLT PUSH2 0x162 JUMPI PUSH1 0x64 CALLDATALOAD PUSH1 0x1 PUSH1 0x1 PUSH1 0xA0 SHL SUB DUP2 AND SWAP2 SWAP1 PUSH1 0x44 CALLDATALOAD SWAP1 PUSH1 0x24 CALLDATALOAD SWAP1 DUP5 SWAP1 SUB PUSH2 0xFD4 JUMPI SWAP2 DUP5 SWAP4 SWAP2 DUP7 SWAP4 PUSH1 0x20 SWAP8 POP DUP2 DUP2 LT PUSH1 0x0 EQ PUSH2 0xFCE JUMPI SWAP1 SWAP2 JUMPDEST CALLDATALOAD DUP5 MSTORE PUSH1 0x2 DUP8 MSTORE DUP5 DUP5 KECCAK256 SWAP1 DUP5 MSTORE DUP7 MSTORE DUP4 DUP4 KECCAK256 SWAP1 DUP4 MSTORE DUP6 MSTORE PUSH1 0x3 DUP4 DUP4 KECCAK256 ADD SWAP1 DUP3 MSTORE DUP5 MSTORE KECCAK256 SLOAD SWAP1 MLOAD SWAP1 DUP2 MSTORE RETURN JUMPDEST SWAP2 PUSH2 0xFA3 JUMP JUMPDEST DUP6 DUP1 REVERT JUMPDEST DUP3 DUP5 CALLVALUE PUSH2 0x1BC JUMPI PUSH2 0xFE8 CALLDATASIZE PUSH2 0x119A JUMP JUMPDEST SWAP2 DUP3 DUP3 LT ISZERO PUSH2 0x103B JUMPI DUP2 SWAP3 SWAP1 JUMPDEST DUP5 MSTORE PUSH1 0x2 PUSH1 0x20 MSTORE DUP5 DUP5 KECCAK256 DUP4 DUP6 MSTORE PUSH1 0x20 MSTORE DUP5 DUP5 KECCAK256 SWAP1 DUP5 MSTORE PUSH1 0x20 MSTORE DUP4 DUP4 KECCAK256 SWAP3 POP EQ PUSH1 0x0 EQ PUSH2 0x102F JUMPI PUSH1 0x1 DUP2 SLOAD SWAP2 ADD SLOAD JUMPDEST DUP3 MLOAD SWAP2 DUP3 MSTORE PUSH1 0x20 DUP3 ADD MSTORE RETURN JUMPDEST PUSH1 0x1 DUP2 ADD SLOAD SWAP1 SLOAD PUSH2 0x1023 JUMP JUMPDEST DUP2 SWAP1 PUSH2 0xFF5 JUMP JUMPDEST POP CALLVALUE PUSH2 0x162 JUMPI PUSH1 0x20 CALLDATASIZE PUSH1 0x3 NOT ADD SLT PUSH2 0x162 JUMPI DUP1 CALLDATALOAD SWAP2 PUSH2 0x105F PUSH2 0x12EF JUMP JUMPDEST DUP1 MLOAD PUSH4 0x77F0B6C3 PUSH1 0xE0 SHL DUP2 MSTORE DUP3 DUP2 ADD DUP5 SWAP1 MSTORE PUSH1 0x80 DUP2 PUSH1 0x24 DUP2 PUSH32 0x0 PUSH1 0x1 PUSH1 0x1 PUSH1 0xA0 SHL SUB AND GAS STATICCALL SWAP1 DUP2 ISZERO PUSH2 0x113C JUMPI DUP6 SWAP2 PUSH2 0x111A JUMPI JUMPDEST POP ISZERO PUSH2 0x10E2 JUMPI DUP4 DUP1 DUP1 DUP6 PUSH32 0x64F0AC923BF29F3A9F3EAB6024CC96D85377F66446835375B9E529FAAF33830B DUP3 DUP1 LOG4 DUP1 RETURN JUMPDEST SWAP1 PUSH1 0x20 PUSH1 0x64 SWAP3 MLOAD SWAP2 PUSH3 0x461BCD PUSH1 0xE5 SHL DUP4 MSTORE DUP3 ADD MSTORE PUSH1 0x12 PUSH1 0x24 DUP3 ADD MSTORE PUSH18 0x15995C9CD9481B9BDD081C995CDBDB1D9959 PUSH1 0x72 SHL PUSH1 0x44 DUP3 ADD MSTORE REVERT JUMPDEST PUSH2 0x1132 SWAP2 POP PUSH1 0x80 RETURNDATASIZE DUP2 GT PUSH2 0x6E7 JUMPI PUSH2 0x6D3 DUP2 DUP4 PUSH2 0x120F JUMP JUMPDEST POP SWAP2 POP POP CODESIZE PUSH2 0x10B1 JUMP JUMPDEST DUP3 MLOAD RETURNDATASIZE DUP8 DUP3 RETURNDATACOPY RETURNDATASIZE SWAP1 REVERT JUMPDEST SWAP3 POP POP CALLVALUE PUSH2 0x162 JUMPI PUSH1 0x20 CALLDATASIZE PUSH1 0x3 NOT ADD SLT PUSH2 0x162 JUMPI CALLDATALOAD PUSH4 0xFFFFFFFF PUSH1 0xE0 SHL DUP2 AND DUP1 SWAP2 SUB PUSH2 0x162 JUMPI PUSH1 0x20 SWAP3 POP PUSH4 0x2711897 PUSH1 0xE5 SHL DUP2 EQ SWAP1 DUP2 ISZERO PUSH2 0x1189 JUMPI JUMPDEST POP ISZERO ISZERO DUP2 MSTORE RETURN JUMPDEST PUSH4 0x1FFC9A7 PUSH1 0xE0 SHL EQ SWAP1 POP CODESIZE PUSH2 0x1182 JUMP JUMPDEST PUSH1 0x60 SWAP1 PUSH1 0x3 NOT ADD SLT PUSH2 0x11B4 JUMPI PUSH1 0x4 CALLDATALOAD SWAP1 PUSH1 0x24 CALLDATALOAD SWAP1 PUSH1 0x44 CALLDATALOAD SWAP1 JUMP JUMPDEST PUSH1 0x0 DUP1 REVERT JUMPDEST PUSH1 0x4 CALLDATALOAD SWAP1 PUSH1 0x1 PUSH1 0x1 PUSH1 0xA0 SHL SUB DUP3 AND DUP3 SUB PUSH2 0x11B4 JUMPI JUMP JUMPDEST PUSH1 0x24 CALLDATALOAD SWAP1 PUSH1 0x1 PUSH1 0x1 PUSH1 0xA0 SHL SUB DUP3 AND DUP3 SUB PUSH2 0x11B4 JUMPI JUMP JUMPDEST PUSH8 0xFFFFFFFFFFFFFFFF DUP2 GT PUSH2 0x11F9 JUMPI PUSH1 0x40 MSTORE JUMP JUMPDEST PUSH4 0x4E487B71 PUSH1 0xE0 SHL PUSH1 0x0 MSTORE PUSH1 0x41 PUSH1 0x4 MSTORE PUSH1 0x24 PUSH1 0x0 REVERT JUMPDEST SWAP1 PUSH1 0x1F DUP1 NOT SWAP2 ADD AND DUP2 ADD SWAP1 DUP2 LT PUSH8 0xFFFFFFFFFFFFFFFF DUP3 GT OR PUSH2 0x11F9 JUMPI PUSH1 0x40 MSTORE JUMP JUMPDEST SWAP1 DUP1 PUSH1 0x1F DUP4 ADD SLT ISZERO PUSH2 0x11B4 JUMPI DUP2 CALLDATALOAD SWAP1 PUSH8 0xFFFFFFFFFFFFFFFF DUP3 GT PUSH2 0x11F9 JUMPI DUP2 PUSH1 0x5 SHL PUSH1 0x40 MLOAD SWAP4 PUSH1 0x20 SWAP4 PUSH2 0x1266 DUP6 DUP5 ADD DUP8 PUSH2 0x120F JUMP JUMPDEST DUP6 MSTORE DUP4 DUP1 DUP7 ADD SWAP3 DUP3 ADD ADD SWAP3 DUP4 GT PUSH2 0x11B4 JUMPI DUP4 ADD SWAP1 JUMPDEST DUP3 DUP3 LT PUSH2 0x1289 JUMPI POP POP POP POP SWAP1 JUMP JUMPDEST DUP2 CALLDATALOAD DUP2 MSTORE SWAP1 DUP4 ADD SWAP1 DUP4 ADD PUSH2 0x127B JUMP JUMPDEST DUP2 PUSH1 0x1F DUP3 ADD SLT ISZERO PUSH2 0x11B4 JUMPI DUP1 CALLDATALOAD SWAP1 PUSH8 0xFFFFFFFFFFFFFFFF DUP3 GT PUSH2 0x11F9 JUMPI PUSH1 0x40 MLOAD SWAP3 PUSH2 0x12CD PUSH1 0x1F DUP5 ADD PUSH1 0x1F NOT AND PUSH1 0x20 ADD DUP6 PUSH2 0x120F JUMP JUMPDEST DUP3 DUP5 MSTORE PUSH1 0x20 DUP4 DUP4 ADD ADD GT PUSH2 0x11B4 JUMPI DUP2 PUSH1 0x0 SWAP3 PUSH1 0x20 DUP1 SWAP4 ADD DUP4 DUP7 ADD CALLDATACOPY DUP4 ADD ADD MSTORE SWAP1 JUMP JUMPDEST PUSH1 0x0 SLOAD PUSH1 0x1 PUSH1 0x1 PUSH1 0xA0 SHL SUB AND CALLER SUB PUSH2 0x1303 JUMPI JUMP JUMPDEST PUSH1 0x40 MLOAD PUSH4 0x118CDAA7 PUSH1 0xE0 SHL DUP2 MSTORE CALLER PUSH1 0x4 DUP3 ADD MSTORE PUSH1 0x24 SWAP1 REVERT JUMPDEST MLOAD SWAP1 DUP2 ISZERO ISZERO DUP3 SUB PUSH2 0x11B4 JUMPI JUMP JUMPDEST SWAP2 SWAP1 DUP3 PUSH1 0x80 SWAP2 SUB SLT PUSH2 0x11B4 JUMPI DUP2 MLOAD SWAP2 PUSH1 0x20 DUP2 ADD MLOAD SWAP2 PUSH2 0x1355 PUSH1 0x60 PUSH2 0x134E PUSH1 0x40 DUP6 ADD PUSH2 0x131B JUMP JUMPDEST SWAP4 ADD PUSH2 0x131B JUMP JUMPDEST SWAP1 JUMP JUMPDEST ISZERO PUSH2 0x135F JUMPI JUMP JUMPDEST PUSH1 0x40 MLOAD PUSH3 0x461BCD PUSH1 0xE5 SHL DUP2 MSTORE PUSH1 0x20 PUSH1 0x4 DUP3 ADD MSTORE PUSH1 0x14 PUSH1 0x24 DUP3 ADD MSTORE PUSH20 0x15995C9CD948191BD95CC81B9BDD08195E1A5CDD PUSH1 0x62 SHL PUSH1 0x44 DUP3 ADD MSTORE PUSH1 0x64 SWAP1 REVERT JUMPDEST ISZERO PUSH2 0x13A2 JUMPI JUMP JUMPDEST PUSH1 0x40 MLOAD PUSH3 0x461BCD PUSH1 0xE5 SHL DUP2 MSTORE PUSH1 0x20 PUSH1 0x4 DUP3 ADD MSTORE PUSH1 0x16 PUSH1 0x24 DUP3 ADD MSTORE PUSH22 0x15995C9CD948185B1C9958591E481C995CDBDB1D9959 PUSH1 0x52 SHL PUSH1 0x44 DUP3 ADD MSTORE PUSH1 0x64 SWAP1 REVERT JUMPDEST ISZERO PUSH2 0x13E7 JUMPI JUMP JUMPDEST PUSH1 0x40 MLOAD PUSH3 0x461BCD PUSH1 0xE5 SHL DUP2 MSTORE PUSH1 0x20 PUSH1 0x4 DUP3 ADD MSTORE PUSH1 0x10 PUSH1 0x24 DUP3 ADD MSTORE PUSH16 0x4964656E746963616C20746F6B656E73 PUSH1 0x80 SHL PUSH1 0x44 DUP3 ADD MSTORE PUSH1 0x64 SWAP1 REVERT JUMPDEST ISZERO PUSH2 0x1426 JUMPI JUMP JUMPDEST PUSH1 0x40 MLOAD PUSH3 0x461BCD PUSH1 0xE5 SHL DUP2 MSTORE PUSH1 0x20 PUSH1 0x4 DUP3 ADD MSTORE PUSH1 0x13 PUSH1 0x24 DUP3 ADD MSTORE PUSH19 0x141BDBDB08191BD95CC81B9BDD08195E1A5CDD PUSH1 0x6A SHL PUSH1 0x44 DUP3 ADD MSTORE PUSH1 0x64 SWAP1 REVERT JUMPDEST DUP2 DUP2 MUL SWAP3 SWAP2 DUP2 ISZERO SWAP2 DUP5 DIV EQ OR ISZERO PUSH2 0x1474 JUMPI JUMP JUMPDEST PUSH4 0x4E487B71 PUSH1 0xE0 SHL PUSH1 0x0 MSTORE PUSH1 0x11 PUSH1 0x4 MSTORE PUSH1 0x24 PUSH1 0x0 REVERT JUMPDEST DUP2 ISZERO PUSH2 0x1494 JUMPI DIV SWAP1 JUMP JUMPDEST PUSH4 0x4E487B71 PUSH1 0xE0 SHL PUSH1 0x0 MSTORE PUSH1 0x12 PUSH1 0x4 MSTORE PUSH1 0x24 PUSH1 0x0 REVERT JUMPDEST SWAP3 SWAP1 PUSH1 0xC0 SWAP5 SWAP3 PUSH1 0x1 DUP1 PUSH1 0xA0 SHL SUB DUP1 SWAP3 AND DUP6 MSTORE AND PUSH1 0x20 DUP5 ADD MSTORE PUSH1 0x40 DUP4 ADD MSTORE PUSH1 0x60 DUP3 ADD MSTORE PUSH1 0xA0 PUSH1 0x80 DUP3 ADD MSTORE PUSH1 0x0 PUSH1 0xA0 DUP3 ADD MSTORE ADD SWAP1 JUMP JUMPDEST SWAP2 SWAP1 DUP3 ADD DUP1 SWAP3 GT PUSH2 0x1474 JUMPI JUMP JUMPDEST PUSH1 0x2 PUSH1 0x1 SLOAD EQ PUSH2 0x14FC JUMPI PUSH1 0x2 PUSH1 0x1 SSTORE JUMP JUMPDEST PUSH1 0x40 MLOAD PUSH4 0x3EE5AEB5 PUSH1 0xE0 SHL DUP2 MSTORE PUSH1 0x4 SWAP1 REVERT JUMPDEST ISZERO PUSH2 0x1515 JUMPI JUMP JUMPDEST PUSH1 0x40 MLOAD PUSH3 0x461BCD PUSH1 0xE5 SHL DUP2 MSTORE PUSH1 0x20 PUSH1 0x4 DUP3 ADD MSTORE PUSH1 0x1A PUSH1 0x24 DUP3 ADD MSTORE PUSH32 0x496E73756666696369656E74206F757470757420616D6F756E74000000000000 PUSH1 0x44 DUP3 ADD MSTORE PUSH1 0x64 SWAP1 REVERT JUMPDEST SWAP2 SWAP1 DUP3 SUB SWAP2 DUP3 GT PUSH2 0x1474 JUMPI JUMP JUMPDEST ISZERO PUSH2 0x156E JUMPI JUMP JUMPDEST PUSH1 0x40 MLOAD PUSH3 0x461BCD PUSH1 0xE5 SHL DUP2 MSTORE PUSH1 0x20 PUSH1 0x4 DUP3 ADD MSTORE PUSH1 0x16 PUSH1 0x24 DUP3 ADD MSTORE PUSH22 0x496E73756666696369656E74206C6971756964697479 PUSH1 0x50 SHL PUSH1 0x44 DUP3 ADD MSTORE PUSH1 0x64 SWAP1 REVERT JUMPDEST SWAP2 SWAP1 DUP3 ISZERO PUSH2 0x160D JUMPI DUP1 ISZERO SWAP2 DUP3 ISZERO DUP1 PUSH2 0x1604 JUMPI JUMPDEST PUSH2 0x15C8 SWAP1 PUSH2 0x1567 JUMP JUMPDEST PUSH2 0x3E5 DUP1 DUP6 MUL SWAP5 DUP6 DIV SUB PUSH2 0x1474 JUMPI PUSH2 0x15E0 SWAP1 DUP5 PUSH2 0x1461 JUMP JUMPDEST SWAP2 PUSH2 0x3E8 DUP1 DUP4 MUL SWAP3 DUP4 DIV EQ OR ISZERO PUSH2 0x1474 JUMPI PUSH2 0x1355 SWAP3 PUSH2 0x15FE SWAP2 PUSH2 0x14DE JUMP JUMPDEST SWAP1 PUSH2 0x148A JUMP JUMPDEST POP DUP1 ISZERO ISZERO PUSH2 0x15BF JUMP JUMPDEST PUSH1 0x40 MLOAD PUSH3 0x461BCD PUSH1 0xE5 SHL DUP2 MSTORE PUSH1 0x20 PUSH1 0x4 DUP3 ADD MSTORE PUSH1 0x19 PUSH1 0x24 DUP3 ADD MSTORE PUSH32 0x496E73756666696369656E7420696E70757420616D6F756E7400000000000000 PUSH1 0x44 DUP3 ADD MSTORE PUSH1 0x64 SWAP1 REVERT INVALID LOG2 PUSH5 0x6970667358 0x22 SLT KECCAK256 0xC0 PUSH0 JUMP ADD 0xD8 0xBC 0x21 PUSH27 0xEC145C9928EFC9E2FD8D7038FFB4FEEE0AF173F0F7F4BB7E64736F PUSH13 0x63430008140033000000000000 "},"methodIdentifiers":{"addLiquidity(bytes32,uint256,uint256,uint256,uint256,uint256,uint256)":"bef39da5","conditionalToken()":"ea3b3c45","createPool(bytes32,uint256,uint256)":"b3a2199d","evaporateVerse(bytes32)":"0a27a0fb","getAmountOut(uint256,bytes32,uint256,uint256)":"3763a833","getReserves(bytes32,uint256,uint256)":"0a335d5e","getUserShares(bytes32,uint256,uint256,address)":"1a1adec7","onERC1155BatchReceived(address,address,uint256[],uint256[],bytes)":"bc197c81","onERC1155Received(address,address,uint256,uint256,bytes)":"f23a6e61","owner()":"8da5cb5b","pools(bytes32,uint256,uint256)":"c2e4a52f","removeLiquidity(bytes32,uint256,uint256,uint256,uint256,uint256)":"91d39c3f","renounceOwnership()":"715018a6","supportsInterface(bytes4)":"01ffc9a7","swap(bytes32,uint256,uint256,uint256,uint256)":"9e3fdd4b","transferOwnership(address)":"f2fde38b"}}}}}