{"contracts/OracleManager.sol":{"OracleManager":{"abi":[{"inputs":[{"internalType":"address","name":"_conditionalToken","type":"address"}],"stateMutability":"nonpayable","type":"constructor"},{"inputs":[{"internalType":"address","name":"owner","type":"address"}],"name":"OwnableInvalidOwner","type":"error"},{"inputs":[{"internalType":"address","name":"account","type":"address"}],"name":"OwnableUnauthorizedAccount","type":"error"},{"inputs":[],"name":"ReentrancyGuardReentrantCall","type":"error"},{"anonymous":false,"inputs":[{"indexed":true,"internalType":"bytes32","name":"eventId","type":"bytes32"},{"indexed":true,"internalType":"address","name":"oracle","type":"address"}],"name":"EventRegistered","type":"event"},{"anonymous":false,"inputs":[{"indexed":true,"internalType":"bytes32","name":"eventId","type":"bytes32"},{"indexed":true,"internalType":"bytes32","name":"outcome","type":"bytes32"}],"name":"EventResolved","type":"event"},{"anonymous":false,"inputs":[{"indexed":true,"internalType":"address","name":"oracle","type":"address"},{"indexed":false,"internalType":"bool","name":"authorized","type":"bool"}],"name":"OracleAuthorized","type":"event"},{"anonymous":false,"inputs":[{"indexed":true,"internalType":"address","name":"previousOwner","type":"address"},{"indexed":true,"internalType":"address","name":"newOwner","type":"address"}],"name":"OwnershipTransferred","type":"event"},{"inputs":[{"internalType":"address","name":"","type":"address"}],"name":"authorizedOracles","outputs":[{"internalType":"bool","name":"","type":"bool"}],"stateMutability":"view","type":"function"},{"inputs":[],"name":"conditionalToken","outputs":[{"internalType":"contract ConditionalToken","name":"","type":"address"}],"stateMutability":"view","type":"function"},{"inputs":[{"internalType":"bytes32","name":"","type":"bytes32"}],"name":"events","outputs":[{"internalType":"address","name":"oracle","type":"address"},{"internalType":"bool","name":"resolved","type":"bool"},{"internalType":"bytes32","name":"outcome","type":"bytes32"},{"internalType":"uint256","name":"registrationTime","type":"uint256"}],"stateMutability":"view","type":"function"},{"inputs":[{"internalType":"bytes32","name":"eventId","type":"bytes32"}],"name":"getEventOutcome","outputs":[{"internalType":"bytes32","name":"","type":"bytes32"}],"stateMutability":"view","type":"function"},{"inputs":[{"internalType":"bytes32","name":"eventId","type":"bytes32"}],"name":"getEventStatus","outputs":[{"internalType":"address","name":"oracle","type":"address"},{"internalType":"bool","name":"resolved","type":"bool"},{"internalType":"bytes32","name":"outcome","type":"bytes32"},{"internalType":"uint256","name":"registrationTime","type":"uint256"}],"stateMutability":"view","type":"function"},{"inputs":[],"name":"getPendingEvents","outputs":[{"internalType":"bytes32[]","name":"","type":"bytes32[]"}],"stateMutability":"view","type":"function"},{"inputs":[{"internalType":"bytes32","name":"eventId","type":"bytes32"}],"name":"isEventResolved","outputs":[{"internalType":"bool","name":"","type":"bool"}],"stateMutability":"view","type":"function"},{"inputs":[],"name":"owner","outputs":[{"internalType":"address","name":"","type":"address"}],"stateMutability":"view","type":"function"},{"inputs":[{"internalType":"bytes32","name":"eventId","type":"bytes32"},{"internalType":"address","name":"oracle","type":"address"}],"name":"registerEvent","outputs":[],"stateMutability":"nonpayable","type":"function"},{"inputs":[],"name":"renounceOwnership","outputs":[],"stateMutability":"nonpayable","type":"function"},{"inputs":[{"internalType":"address","name":"oracle","type":"address"},{"internalType":"bool","name":"authorized","type":"bool"}],"name":"setOracleAuthorization","outputs":[],"stateMutability":"nonpayable","type":"function"},{"inputs":[{"internalType":"bytes32","name":"eventId","type":"bytes32"},{"internalType":"bytes32","name":"outcome","type":"bytes32"}],"name":"submitOutcome","outputs":[],"stateMutability":"nonpayable","type":"function"},{"inputs":[{"internalType":"address","name":"newOwner","type":"address"}],"name":"transferOwnership","outputs":[],"stateMutability":"nonpayable","type":"function"}],"evm":{"bytecode":{"linkReferences":{},"object":"60a0346100ea57601f610a9638819003918201601f19168301916001600160401b038311848410176100ef578084926020946040528339810103126100ea57516001600160a01b0390818116908190036100ea5733156100d15760008054336001600160a01b03198216811783556040805195909492167f8be0079c531659141344cd1fd0a4f28419497f9722a3daafe3b4186f6b6457e08480a360018055608052338152600360205220600160ff198254161790556109909081610106823960805181818161015801526102240152f35b604051631e4fbdf760e01b815260006004820152602490fd5b600080fd5b634e487b7160e01b600052604160045260246000fdfe6040608081526004908136101561001557600080fd5b600091823560e01c806329996fcc1461074d57806340212bc9146106b15780634b0ecb301461062957806361c992a3146105eb578063715018a6146105915780638da5cb5b146105695780638ed20f861461053a578063b4184e70146104af578063bfdc4a611461044d578063d5c1a1e1146103cb578063d63509e51461018b578063ea3b3c45146101435763f2fde38b146100b057600080fd5b3461013f57602036600319011261013f576100c96108d0565b906100d26108eb565b6001600160a01b03918216928315610129575050600054826bffffffffffffffffffffffff60a01b821617600055167f8be0079c531659141344cd1fd0a4f28419497f9722a3daafe3b4186f6b6457e0600080a380f35b51631e4fbdf760e01b8152908101849052602490fd5b8280fd5b505034610187578160031936011261018757517f00000000000000000000000000000000000000000000000000000000000000006001600160a01b03168152602090f35b5080fd5b5091903461018757806003193601126101875782356024918235923385526020956003875260ff8387205416156103935783865260028752828620546001600160a01b0390339082160361035f57600260015414610350576002600155848752600288528387209788549060ff8260a01c166103165787156102e357509560018899829997988260a01b9060ff60a01b191617815501557f000000000000000000000000000000000000000000000000000000000000000016803b156102df57849060448551809781936319ebe1e360e11b83528a878401528b888401525af180156102d5576102a5575b505050507f79536e56297dd7e0c85cb19902c820591cf44fddb262102cd8c92ab8918348c68380a36001805580f35b67ffffffffffffffff84979597116102c4575050529138808080610276565b634e487b7160e01b85526041905283fd5b83513d89823e3d90fd5b8480fd5b83600f8660649389519362461bcd60e51b85528401528201526e496e76616c6964206f7574636f6d6560881b6044820152fd5b8360168660649389519362461bcd60e51b855284015282015275115d995b9d08185b1c9958591e481c995cdbdb1d995960521b6044820152fd5b508251633ee5aeb560e01b8152fd5b5060106064928885519362461bcd60e51b85528401528201526f4e6f74206576656e74206f7261636c6560801b6044820152fd5b60156064928885519362461bcd60e51b8552840152820152744e6f7420617574686f72697a6564206f7261636c6560581b6044820152fd5b5050346101875780600319360112610187576103e56108d0565b60243590811515809203610449577f82a8fb1e779ea45ad427cc612e47087f5386a567e49dce488185e40646fa48d5916020916104206108eb565b6001600160a01b031680865260038352848620805460ff191660ff84161790559351908152a280f35b8380fd5b503461013f57602036600319011261013f57358252600260208181529282902080546001820154919092015492516001600160a01b038316815260a09290921c60ff1615159382019390935260408101929092526060820152608090f35b0390f35b5082346105375780600319360112610537578251906020908183019383851067ffffffffffffffff86111761052457509093929182845281815283519485948186019282875251809352850193925b82811061050d57505050500390f35b8351855286955093810193928101926001016104fe565b634e487b7160e01b825260419052602490fd5b80fd5b503461013f57602036600319011261013f578160209360ff9235815260028552205460a01c1690519015158152f35b505034610187578160031936011261018757905490516001600160a01b039091168152602090f35b83346105375780600319360112610537576105aa6108eb565b80546001600160a01b03198116825581906001600160a01b03167f8be0079c531659141344cd1fd0a4f28419497f9722a3daafe3b4186f6b6457e08280a380f35b5050346101875760203660031901126101875760209160ff9082906001600160a01b036106166108d0565b1681526003855220541690519015158152f35b5082903461018757602036600319011261018757358082526002602052828220546001600160a01b03926104ab9285926106669086161515610917565b81526002602052209283549360026001820154910154915194859460ff8260a01c1691168590949392606092608083019660018060a01b031683521515602083015260408201520152565b509134610537576020928360031936011261018757803580835260028552838320549091906106ea906001600160a01b03161515610917565b8183526002855260ff8484205460a01c16156107155750815260028352819020600101549051908152f35b835162461bcd60e51b81529081018590526012602482015271115d995b9d081b9bdd081c995cdbdb1d995960721b6044820152606490fd5b509190346101875780600319360112610187576024356001600160a01b03818116928535928490036102df576107816108eb565b8285526020906002825282818720541661088d578486526003825260ff818720541615610852578051926080840184811067ffffffffffffffff82111761083f5782528584528383018781528483018881524260608701908152878a526002958690529389209551865492516001600160a81b031990931693169290921790151560a01b60ff60a01b16178455516001840155519101557f5f82565df0d26e7eaed24c28a592794743d5efc506b7ed638b0b05226ccd9bc18380a380f35b634e487b7160e01b885260418952602488fd5b5162461bcd60e51b815280870191909152601560248201527413dc9858db19481b9bdd08185d5d1a1bdc9a5e9959605a1b6044820152606490fd5b5162461bcd60e51b815280870191909152601860248201527f4576656e7420616c7265616479207265676973746572656400000000000000006044820152606490fd5b600435906001600160a01b03821682036108e657565b600080fd5b6000546001600160a01b031633036108ff57565b60405163118cdaa760e01b8152336004820152602490fd5b1561091e57565b60405162461bcd60e51b8152602060048201526014602482015273115d995b9d081b9bdd081c9959da5cdd195c995960621b6044820152606490fdfea2646970667358221220b4854e0ef2a8d8b247cc493a70c0daacb020dedd7fb155fa61a28894b013679164736f6c63430008140033","opcodes":"PUSH1 0xA0 CALLVALUE PUSH2 0xEA JUMPI PUSH1 0x1F PUSH2 0xA96 CODESIZE DUP2 SWAP1 SUB SWAP2 DUP3 ADD PUSH1 0x1F NOT AND DUP4 ADD SWAP2 PUSH1 0x1 PUSH1 0x1 PUSH1 0x40 SHL SUB DUP4 GT DUP5 DUP5 LT OR PUSH2 0xEF JUMPI DUP1 DUP5 SWAP3 PUSH1 0x20 SWAP5 PUSH1 0x40 MSTORE DUP4 CODECOPY DUP2 ADD SUB SLT PUSH2 0xEA JUMPI MLOAD PUSH1 0x1 PUSH1 0x1 PUSH1 0xA0 SHL SUB SWAP1 DUP2 DUP2 AND SWAP1 DUP2 SWAP1 SUB PUSH2 0xEA JUMPI CALLER ISZERO PUSH2 0xD1 JUMPI PUSH1 0x0 DUP1 SLOAD CALLER PUSH1 0x1 PUSH1 0x1 PUSH1 0xA0 SHL SUB NOT DUP3 AND DUP2 OR DUP4 SSTORE PUSH1 0x40 DUP1 MLOAD SWAP6 SWAP1 SWAP5 SWAP3 AND PUSH32 0x8BE0079C531659141344CD1FD0A4F28419497F9722A3DAAFE3B4186F6B6457E0 DUP5 DUP1 LOG3 PUSH1 0x1 DUP1 SSTORE PUSH1 0x80 MSTORE CALLER DUP2 MSTORE PUSH1 0x3 PUSH1 0x20 MSTORE KECCAK256 PUSH1 0x1 PUSH1 0xFF NOT DUP3 SLOAD AND OR SWAP1 SSTORE PUSH2 0x990 SWAP1 DUP2 PUSH2 0x106 DUP3 CODECOPY PUSH1 0x80 MLOAD DUP2 DUP2 DUP2 PUSH2 0x158 ADD MSTORE PUSH2 0x224 ADD MSTORE RETURN JUMPDEST PUSH1 0x40 MLOAD PUSH4 0x1E4FBDF7 PUSH1 0xE0 SHL DUP2 MSTORE PUSH1 0x0 PUSH1 0x4 DUP3 ADD MSTORE PUSH1 0x24 SWAP1 REVERT JUMPDEST PUSH1 0x0 DUP1 REVERT JUMPDEST PUSH4 0x4E487B71 PUSH1 0xE0 SHL PUSH1 0x0 MSTORE PUSH1 0x41 PUSH1 0x4 MSTORE PUSH1 0x24 PUSH1 0x0 REVERT INVALID PUSH1 0x40 PUSH1 0x80 DUP2 MSTORE PUSH1 0x4 SWAP1 DUP2 CALLDATASIZE LT ISZERO PUSH2 0x15 JUMPI PUSH1 0x0 DUP1 REVERT JUMPDEST PUSH1 0x0 SWAP2 DUP3 CALLDATALOAD PUSH1 0xE0 SHR DUP1 PUSH4 0x29996FCC EQ PUSH2 0x74D JUMPI DUP1 PUSH4 0x40212BC9 EQ PUSH2 0x6B1 JUMPI DUP1 PUSH4 0x4B0ECB30 EQ PUSH2 0x629 JUMPI DUP1 PUSH4 0x61C992A3 EQ PUSH2 0x5EB JUMPI DUP1 PUSH4 0x715018A6 EQ PUSH2 0x591 JUMPI DUP1 PUSH4 0x8DA5CB5B EQ PUSH2 0x569 JUMPI DUP1 PUSH4 0x8ED20F86 EQ PUSH2 0x53A JUMPI DUP1 PUSH4 0xB4184E70 EQ PUSH2 0x4AF JUMPI DUP1 PUSH4 0xBFDC4A61 EQ PUSH2 0x44D JUMPI DUP1 PUSH4 0xD5C1A1E1 EQ PUSH2 0x3CB JUMPI DUP1 PUSH4 0xD63509E5 EQ PUSH2 0x18B JUMPI DUP1 PUSH4 0xEA3B3C45 EQ PUSH2 0x143 JUMPI PUSH4 0xF2FDE38B EQ PUSH2 0xB0 JUMPI PUSH1 0x0 DUP1 REVERT JUMPDEST CALLVALUE PUSH2 0x13F JUMPI PUSH1 0x20 CALLDATASIZE PUSH1 0x3 NOT ADD SLT PUSH2 0x13F JUMPI PUSH2 0xC9 PUSH2 0x8D0 JUMP JUMPDEST SWAP1 PUSH2 0xD2 PUSH2 0x8EB JUMP JUMPDEST PUSH1 0x1 PUSH1 0x1 PUSH1 0xA0 SHL SUB SWAP2 DUP3 AND SWAP3 DUP4 ISZERO PUSH2 0x129 JUMPI POP POP PUSH1 0x0 SLOAD DUP3 PUSH12 0xFFFFFFFFFFFFFFFFFFFFFFFF PUSH1 0xA0 SHL DUP3 AND OR PUSH1 0x0 SSTORE AND PUSH32 0x8BE0079C531659141344CD1FD0A4F28419497F9722A3DAAFE3B4186F6B6457E0 PUSH1 0x0 DUP1 LOG3 DUP1 RETURN JUMPDEST MLOAD PUSH4 0x1E4FBDF7 PUSH1 0xE0 SHL DUP2 MSTORE SWAP1 DUP2 ADD DUP5 SWAP1 MSTORE PUSH1 0x24 SWAP1 REVERT JUMPDEST DUP3 DUP1 REVERT JUMPDEST POP POP CALLVALUE PUSH2 0x187 JUMPI DUP2 PUSH1 0x3 NOT CALLDATASIZE ADD SLT PUSH2 0x187 JUMPI MLOAD PUSH32 0x0 PUSH1 0x1 PUSH1 0x1 PUSH1 0xA0 SHL SUB AND DUP2 MSTORE PUSH1 0x20 SWAP1 RETURN JUMPDEST POP DUP1 REVERT JUMPDEST POP SWAP2 SWAP1 CALLVALUE PUSH2 0x187 JUMPI DUP1 PUSH1 0x3 NOT CALLDATASIZE ADD SLT PUSH2 0x187 JUMPI DUP3 CALLDATALOAD PUSH1 0x24 SWAP2 DUP3 CALLDATALOAD SWAP3 CALLER DUP6 MSTORE PUSH1 0x20 SWAP6 PUSH1 0x3 DUP8 MSTORE PUSH1 0xFF DUP4 DUP8 KECCAK256 SLOAD AND ISZERO PUSH2 0x393 JUMPI DUP4 DUP7 MSTORE PUSH1 0x2 DUP8 MSTORE DUP3 DUP7 KECCAK256 SLOAD PUSH1 0x1 PUSH1 0x1 PUSH1 0xA0 SHL SUB SWAP1 CALLER SWAP1 DUP3 AND SUB PUSH2 0x35F JUMPI PUSH1 0x2 PUSH1 0x1 SLOAD EQ PUSH2 0x350 JUMPI PUSH1 0x2 PUSH1 0x1 SSTORE DUP5 DUP8 MSTORE PUSH1 0x2 DUP9 MSTORE DUP4 DUP8 KECCAK256 SWAP8 DUP9 SLOAD SWAP1 PUSH1 0xFF DUP3 PUSH1 0xA0 SHR AND PUSH2 0x316 JUMPI DUP8 ISZERO PUSH2 0x2E3 JUMPI POP SWAP6 PUSH1 0x1 DUP9 SWAP10 DUP3 SWAP10 SWAP8 SWAP9 DUP3 PUSH1 0xA0 SHL SWAP1 PUSH1 0xFF PUSH1 0xA0 SHL NOT AND OR DUP2 SSTORE ADD SSTORE PUSH32 0x0 AND DUP1 EXTCODESIZE ISZERO PUSH2 0x2DF JUMPI DUP5 SWAP1 PUSH1 0x44 DUP6 MLOAD DUP1 SWAP8 DUP2 SWAP4 PUSH4 0x19EBE1E3 PUSH1 0xE1 SHL DUP4 MSTORE DUP11 DUP8 DUP5 ADD MSTORE DUP12 DUP9 DUP5 ADD MSTORE GAS CALL DUP1 ISZERO PUSH2 0x2D5 JUMPI PUSH2 0x2A5 JUMPI JUMPDEST POP POP POP POP PUSH32 0x79536E56297DD7E0C85CB19902C820591CF44FDDB262102CD8C92AB8918348C6 DUP4 DUP1 LOG3 PUSH1 0x1 DUP1 SSTORE DUP1 RETURN JUMPDEST PUSH8 0xFFFFFFFFFFFFFFFF DUP5 SWAP8 SWAP6 SWAP8 GT PUSH2 0x2C4 JUMPI POP POP MSTORE SWAP2 CODESIZE DUP1 DUP1 DUP1 PUSH2 0x276 JUMP JUMPDEST PUSH4 0x4E487B71 PUSH1 0xE0 SHL DUP6 MSTORE PUSH1 0x41 SWAP1 MSTORE DUP4 REVERT JUMPDEST DUP4 MLOAD RETURNDATASIZE DUP10 DUP3 RETURNDATACOPY RETURNDATASIZE SWAP1 REVERT JUMPDEST DUP5 DUP1 REVERT JUMPDEST DUP4 PUSH1 0xF DUP7 PUSH1 0x64 SWAP4 DUP10 MLOAD SWAP4 PUSH3 0x461BCD PUSH1 0xE5 SHL DUP6 MSTORE DUP5 ADD MSTORE DUP3 ADD MSTORE PUSH15 0x496E76616C6964206F7574636F6D65 PUSH1 0x88 SHL PUSH1 0x44 DUP3 ADD MSTORE REVERT JUMPDEST DUP4 PUSH1 0x16 DUP7 PUSH1 0x64 SWAP4 DUP10 MLOAD SWAP4 PUSH3 0x461BCD PUSH1 0xE5 SHL DUP6 MSTORE DUP5 ADD MSTORE DUP3 ADD MSTORE PUSH22 0x115D995B9D08185B1C9958591E481C995CDBDB1D9959 PUSH1 0x52 SHL PUSH1 0x44 DUP3 ADD MSTORE REVERT JUMPDEST POP DUP3 MLOAD PUSH4 0x3EE5AEB5 PUSH1 0xE0 SHL DUP2 MSTORE REVERT JUMPDEST POP PUSH1 0x10 PUSH1 0x64 SWAP3 DUP9 DUP6 MLOAD SWAP4 PUSH3 0x461BCD PUSH1 0xE5 SHL DUP6 MSTORE DUP5 ADD MSTORE DUP3 ADD MSTORE PUSH16 0x4E6F74206576656E74206F7261636C65 PUSH1 0x80 SHL PUSH1 0x44 DUP3 ADD MSTORE REVERT JUMPDEST PUSH1 0x15 PUSH1 0x64 SWAP3 DUP9 DUP6 MLOAD SWAP4 PUSH3 0x461BCD PUSH1 0xE5 SHL DUP6 MSTORE DUP5 ADD MSTORE DUP3 ADD MSTORE PUSH21 0x4E6F7420617574686F72697A6564206F7261636C65 PUSH1 0x58 SHL PUSH1 0x44 DUP3 ADD MSTORE REVERT JUMPDEST POP POP CALLVALUE PUSH2 0x187 JUMPI DUP1 PUSH1 0x3 NOT CALLDATASIZE ADD SLT PUSH2 0x187 JUMPI PUSH2 0x3E5 PUSH2 0x8D0 JUMP JUMPDEST PUSH1 0x24 CALLDATALOAD SWAP1 DUP2 ISZERO ISZERO DUP1 SWAP3 SUB PUSH2 0x449 JUMPI PUSH32 0x82A8FB1E779EA45AD427CC612E47087F5386A567E49DCE488185E40646FA48D5 SWAP2 PUSH1 0x20 SWAP2 PUSH2 0x420 PUSH2 0x8EB JUMP JUMPDEST PUSH1 0x1 PUSH1 0x1 PUSH1 0xA0 SHL SUB AND DUP1 DUP7 MSTORE PUSH1 0x3 DUP4 MSTORE DUP5 DUP7 KECCAK256 DUP1 SLOAD PUSH1 0xFF NOT AND PUSH1 0xFF DUP5 AND OR SWAP1 SSTORE SWAP4 MLOAD SWAP1 DUP2 MSTORE LOG2 DUP1 RETURN JUMPDEST DUP4 DUP1 REVERT JUMPDEST POP CALLVALUE PUSH2 0x13F JUMPI PUSH1 0x20 CALLDATASIZE PUSH1 0x3 NOT ADD SLT PUSH2 0x13F JUMPI CALLDATALOAD DUP3 MSTORE PUSH1 0x2 PUSH1 0x20 DUP2 DUP2 MSTORE SWAP3 DUP3 SWAP1 KECCAK256 DUP1 SLOAD PUSH1 0x1 DUP3 ADD SLOAD SWAP2 SWAP1 SWAP3 ADD SLOAD SWAP3 MLOAD PUSH1 0x1 PUSH1 0x1 PUSH1 0xA0 SHL SUB DUP4 AND DUP2 MSTORE PUSH1 0xA0 SWAP3 SWAP1 SWAP3 SHR PUSH1 0xFF AND ISZERO ISZERO SWAP4 DUP3 ADD SWAP4 SWAP1 SWAP4 MSTORE PUSH1 0x40 DUP2 ADD SWAP3 SWAP1 SWAP3 MSTORE PUSH1 0x60 DUP3 ADD MSTORE PUSH1 0x80 SWAP1 RETURN JUMPDEST SUB SWAP1 RETURN JUMPDEST POP DUP3 CALLVALUE PUSH2 0x537 JUMPI DUP1 PUSH1 0x3 NOT CALLDATASIZE ADD SLT PUSH2 0x537 JUMPI DUP3 MLOAD SWAP1 PUSH1 0x20 SWAP1 DUP2 DUP4 ADD SWAP4 DUP4 DUP6 LT PUSH8 0xFFFFFFFFFFFFFFFF DUP7 GT OR PUSH2 0x524 JUMPI POP SWAP1 SWAP4 SWAP3 SWAP2 DUP3 DUP5 MSTORE DUP2 DUP2 MSTORE DUP4 MLOAD SWAP5 DUP6 SWAP5 DUP2 DUP7 ADD SWAP3 DUP3 DUP8 MSTORE MLOAD DUP1 SWAP4 MSTORE DUP6 ADD SWAP4 SWAP3 JUMPDEST DUP3 DUP2 LT PUSH2 0x50D JUMPI POP POP POP POP SUB SWAP1 RETURN JUMPDEST DUP4 MLOAD DUP6 MSTORE DUP7 SWAP6 POP SWAP4 DUP2 ADD SWAP4 SWAP3 DUP2 ADD SWAP3 PUSH1 0x1 ADD PUSH2 0x4FE JUMP JUMPDEST PUSH4 0x4E487B71 PUSH1 0xE0 SHL DUP3 MSTORE PUSH1 0x41 SWAP1 MSTORE PUSH1 0x24 SWAP1 REVERT JUMPDEST DUP1 REVERT JUMPDEST POP CALLVALUE PUSH2 0x13F JUMPI PUSH1 0x20 CALLDATASIZE PUSH1 0x3 NOT ADD SLT PUSH2 0x13F JUMPI DUP2 PUSH1 0x20 SWAP4 PUSH1 0xFF SWAP3 CALLDATALOAD DUP2 MSTORE PUSH1 0x2 DUP6 MSTORE KECCAK256 SLOAD PUSH1 0xA0 SHR AND SWAP1 MLOAD SWAP1 ISZERO ISZERO DUP2 MSTORE RETURN JUMPDEST POP POP CALLVALUE PUSH2 0x187 JUMPI DUP2 PUSH1 0x3 NOT CALLDATASIZE ADD SLT PUSH2 0x187 JUMPI SWAP1 SLOAD SWAP1 MLOAD PUSH1 0x1 PUSH1 0x1 PUSH1 0xA0 SHL SUB SWAP1 SWAP2 AND DUP2 MSTORE PUSH1 0x20 SWAP1 RETURN JUMPDEST DUP4 CALLVALUE PUSH2 0x537 JUMPI DUP1 PUSH1 0x3 NOT CALLDATASIZE ADD SLT PUSH2 0x537 JUMPI PUSH2 0x5AA PUSH2 0x8EB JUMP JUMPDEST DUP1 SLOAD PUSH1 0x1 PUSH1 0x1 PUSH1 0xA0 SHL SUB NOT DUP2 AND DUP3 SSTORE DUP2 SWAP1 PUSH1 0x1 PUSH1 0x1 PUSH1 0xA0 SHL SUB AND PUSH32 0x8BE0079C531659141344CD1FD0A4F28419497F9722A3DAAFE3B4186F6B6457E0 DUP3 DUP1 LOG3 DUP1 RETURN JUMPDEST POP POP CALLVALUE PUSH2 0x187 JUMPI PUSH1 0x20 CALLDATASIZE PUSH1 0x3 NOT ADD SLT PUSH2 0x187 JUMPI PUSH1 0x20 SWAP2 PUSH1 0xFF SWAP1 DUP3 SWAP1 PUSH1 0x1 PUSH1 0x1 PUSH1 0xA0 SHL SUB PUSH2 0x616 PUSH2 0x8D0 JUMP JUMPDEST AND DUP2 MSTORE PUSH1 0x3 DUP6 MSTORE KECCAK256 SLOAD AND SWAP1 MLOAD SWAP1 ISZERO ISZERO DUP2 MSTORE RETURN JUMPDEST POP DUP3 SWAP1 CALLVALUE PUSH2 0x187 JUMPI PUSH1 0x20 CALLDATASIZE PUSH1 0x3 NOT ADD SLT PUSH2 0x187 JUMPI CALLDATALOAD DUP1 DUP3 MSTORE PUSH1 0x2 PUSH1 0x20 MSTORE DUP3 DUP3 KECCAK256 SLOAD PUSH1 0x1 PUSH1 0x1 PUSH1 0xA0 SHL SUB SWAP3 PUSH2 0x4AB SWAP3 DUP6 SWAP3 PUSH2 0x666 SWAP1 DUP7 AND ISZERO ISZERO PUSH2 0x917 JUMP JUMPDEST DUP2 MSTORE PUSH1 0x2 PUSH1 0x20 MSTORE KECCAK256 SWAP3 DUP4 SLOAD SWAP4 PUSH1 0x2 PUSH1 0x1 DUP3 ADD SLOAD SWAP2 ADD SLOAD SWAP2 MLOAD SWAP5 DUP6 SWAP5 PUSH1 0xFF DUP3 PUSH1 0xA0 SHR AND SWAP2 AND DUP6 SWAP1 SWAP5 SWAP4 SWAP3 PUSH1 0x60 SWAP3 PUSH1 0x80 DUP4 ADD SWAP7 PUSH1 0x1 DUP1 PUSH1 0xA0 SHL SUB AND DUP4 MSTORE ISZERO ISZERO PUSH1 0x20 DUP4 ADD MSTORE PUSH1 0x40 DUP3 ADD MSTORE ADD MSTORE JUMP JUMPDEST POP SWAP2 CALLVALUE PUSH2 0x537 JUMPI PUSH1 0x20 SWAP3 DUP4 PUSH1 0x3 NOT CALLDATASIZE ADD SLT PUSH2 0x187 JUMPI DUP1 CALLDATALOAD DUP1 DUP4 MSTORE PUSH1 0x2 DUP6 MSTORE DUP4 DUP4 KECCAK256 SLOAD SWAP1 SWAP2 SWAP1 PUSH2 0x6EA SWAP1 PUSH1 0x1 PUSH1 0x1 PUSH1 0xA0 SHL SUB AND ISZERO ISZERO PUSH2 0x917 JUMP JUMPDEST DUP2 DUP4 MSTORE PUSH1 0x2 DUP6 MSTORE PUSH1 0xFF DUP5 DUP5 KECCAK256 SLOAD PUSH1 0xA0 SHR AND ISZERO PUSH2 0x715 JUMPI POP DUP2 MSTORE PUSH1 0x2 DUP4 MSTORE DUP2 SWAP1 KECCAK256 PUSH1 0x1 ADD SLOAD SWAP1 MLOAD SWAP1 DUP2 MSTORE RETURN JUMPDEST DUP4 MLOAD PUSH3 0x461BCD PUSH1 0xE5 SHL DUP2 MSTORE SWAP1 DUP2 ADD DUP6 SWAP1 MSTORE PUSH1 0x12 PUSH1 0x24 DUP3 ADD MSTORE PUSH18 0x115D995B9D081B9BDD081C995CDBDB1D9959 PUSH1 0x72 SHL PUSH1 0x44 DUP3 ADD MSTORE PUSH1 0x64 SWAP1 REVERT JUMPDEST POP SWAP2 SWAP1 CALLVALUE PUSH2 0x187 JUMPI DUP1 PUSH1 0x3 NOT CALLDATASIZE ADD SLT PUSH2 0x187 JUMPI PUSH1 0x24 CALLDATALOAD PUSH1 0x1 PUSH1 0x1 PUSH1 0xA0 SHL SUB DUP2 DUP2 AND SWAP3 DUP6 CALLDATALOAD SWAP3 DUP5 SWAP1 SUB PUSH2 0x2DF JUMPI PUSH2 0x781 PUSH2 0x8EB JUMP JUMPDEST DUP3 DUP6 MSTORE PUSH1 0x20 SWAP1 PUSH1 0x2 DUP3 MSTORE DUP3 DUP2 DUP8 KECCAK256 SLOAD AND PUSH2 0x88D JUMPI DUP5 DUP7 MSTORE PUSH1 0x3 DUP3 MSTORE PUSH1 0xFF DUP2 DUP8 KECCAK256 SLOAD AND ISZERO PUSH2 0x852 JUMPI DUP1 MLOAD SWAP3 PUSH1 0x80 DUP5 ADD DUP5 DUP2 LT PUSH8 0xFFFFFFFFFFFFFFFF DUP3 GT OR PUSH2 0x83F JUMPI DUP3 MSTORE DUP6 DUP5 MSTORE DUP4 DUP4 ADD DUP8 DUP2 MSTORE DUP5 DUP4 ADD DUP9 DUP2 MSTORE TIMESTAMP PUSH1 0x60 DUP8 ADD SWAP1 DUP2 MSTORE DUP8 DUP11 MSTORE PUSH1 0x2 SWAP6 DUP7 SWAP1 MSTORE SWAP4 DUP10 KECCAK256 SWAP6 MLOAD DUP7 SLOAD SWAP3 MLOAD PUSH1 0x1 PUSH1 0x1 PUSH1 0xA8 SHL SUB NOT SWAP1 SWAP4 AND SWAP4 AND SWAP3 SWAP1 SWAP3 OR SWAP1 ISZERO ISZERO PUSH1 0xA0 SHL PUSH1 0xFF PUSH1 0xA0 SHL AND OR DUP5 SSTORE MLOAD PUSH1 0x1 DUP5 ADD SSTORE MLOAD SWAP2 ADD SSTORE PUSH32 0x5F82565DF0D26E7EAED24C28A592794743D5EFC506B7ED638B0B05226CCD9BC1 DUP4 DUP1 LOG3 DUP1 RETURN JUMPDEST PUSH4 0x4E487B71 PUSH1 0xE0 SHL DUP9 MSTORE PUSH1 0x41 DUP10 MSTORE PUSH1 0x24 DUP9 REVERT JUMPDEST MLOAD PUSH3 0x461BCD PUSH1 0xE5 SHL DUP2 MSTORE DUP1 DUP8 ADD SWAP2 SWAP1 SWAP2 MSTORE PUSH1 0x15 PUSH1 0x24 DUP3 ADD MSTORE PUSH21 0x13DC9858DB19481B9BDD08185D5D1A1BDC9A5E9959 PUSH1 0x5A SHL PUSH1 0x44 DUP3 ADD MSTORE PUSH1 0x64 SWAP1 REVERT JUMPDEST MLOAD PUSH3 0x461BCD PUSH1 0xE5 SHL DUP2 MSTORE DUP1 DUP8 ADD SWAP2 SWAP1 SWAP2 MSTORE PUSH1 0x18 PUSH1 0x24 DUP3 ADD MSTORE PUSH32 0x4576656E7420616C726561647920726567697374657265640000000000000000 PUSH1 0x44 DUP3 ADD MSTORE PUSH1 0x64 SWAP1 REVERT JUMPDEST PUSH1 0x4 CALLDATALOAD SWAP1 PUSH1 0x1 PUSH1 0x1 PUSH1 0xA0 SHL SUB DUP3 AND DUP3 SUB PUSH2 0x8E6 JUMPI JUMP JUMPDEST PUSH1 0x0 DUP1 REVERT JUMPDEST PUSH1 0x0 SLOAD PUSH1 0x1 PUSH1 0x1 PUSH1 0xA0 SHL SUB AND CALLER SUB PUSH2 0x8FF JUMPI JUMP JUMPDEST PUSH1 0x40 MLOAD PUSH4 0x118CDAA7 PUSH1 0xE0 SHL DUP2 MSTORE CALLER PUSH1 0x4 DUP3 ADD MSTORE PUSH1 0x24 SWAP1 REVERT JUMPDEST ISZERO PUSH2 0x91E JUMPI JUMP JUMPDEST PUSH1 0x40 MLOAD PUSH3 0x461BCD PUSH1 0xE5 SHL DUP2 MSTORE PUSH1 0x20 PUSH1 0x4 DUP3 ADD MSTORE PUSH1 0x14 PUSH1 0x24 DUP3 ADD MSTORE PUSH20 0x115D995B9D081B9BDD081C9959DA5CDD195C9959 PUSH1 0x62 SHL PUSH1 0x44 DUP3 ADD MSTORE PUSH1 0x64 SWAP1 REVERT INVALID LOG2 PUSH5 0x6970667358 0x22 SLT KECCAK256 0xB4 DUP6 0x4E 0xE CALLCODE 0xA8 0xD8 0xB2 SELFBALANCE 0xCC 0x49 GASPRICE PUSH17 0xC0DAACB020DEDD7FB155FA61A28894B013 PUSH8 0x9164736F6C634300 ADDMOD EQ STOP CALLER "},"methodIdentifiers":{"authorizedOracles(address)":"61c992a3","conditionalToken()":"ea3b3c45","events(bytes32)":"bfdc4a61","getEventOutcome(bytes32)":"40212bc9","getEventStatus(bytes32)":"4b0ecb30","getPendingEvents()":"b4184e70","isEventResolved(bytes32)":"8ed20f86","owner()":"8da5cb5b","registerEvent(bytes32,address)":"29996fcc","renounceOwnership()":"715018a6","setOracleAuthorization(address,bool)":"d5c1a1e1","submitOutcome(bytes32,bytes32)":"d63509e5","transferOwnership(address)":"f2fde38b"}}}}}